{
	"PaymentsContract.sol": {
		"SupplyChainContract": {
			"abi": [
				{
					"inputs": [],
					"stateMutability": "nonpayable",
					"type": "constructor"
				},
				{
					"anonymous": false,
					"inputs": [
						{
							"indexed": true,
							"internalType": "address",
							"name": "from",
							"type": "address"
						},
						{
							"indexed": false,
							"internalType": "uint256",
							"name": "amount",
							"type": "uint256"
						}
					],
					"name": "PaymentReceived",
					"type": "event"
				},
				{
					"anonymous": false,
					"inputs": [
						{
							"indexed": true,
							"internalType": "address",
							"name": "to",
							"type": "address"
						},
						{
							"indexed": false,
							"internalType": "uint256",
							"name": "amount",
							"type": "uint256"
						}
					],
					"name": "PaymentSent",
					"type": "event"
				},
				{
					"inputs": [
						{
							"internalType": "address",
							"name": "_stakeholderAddress",
							"type": "address"
						},
						{
							"internalType": "enum SupplyChainContract.Role",
							"name": "_role",
							"type": "uint8"
						}
					],
					"name": "addStakeholder",
					"outputs": [],
					"stateMutability": "nonpayable",
					"type": "function"
				},
				{
					"inputs": [],
					"name": "deposit",
					"outputs": [],
					"stateMutability": "payable",
					"type": "function"
				},
				{
					"inputs": [
						{
							"internalType": "address",
							"name": "_stakeholderAddress",
							"type": "address"
						}
					],
					"name": "getBalance",
					"outputs": [
						{
							"internalType": "uint256",
							"name": "",
							"type": "uint256"
						}
					],
					"stateMutability": "view",
					"type": "function"
				},
				{
					"inputs": [],
					"name": "owner",
					"outputs": [
						{
							"internalType": "address",
							"name": "",
							"type": "address"
						}
					],
					"stateMutability": "view",
					"type": "function"
				},
				{
					"inputs": [
						{
							"internalType": "address payable",
							"name": "_recipient",
							"type": "address"
						},
						{
							"internalType": "uint256",
							"name": "_amount",
							"type": "uint256"
						}
					],
					"name": "sendPayment",
					"outputs": [],
					"stateMutability": "nonpayable",
					"type": "function"
				},
				{
					"inputs": [
						{
							"internalType": "address",
							"name": "",
							"type": "address"
						}
					],
					"name": "stakeholders",
					"outputs": [
						{
							"internalType": "address",
							"name": "stakeholderAddress",
							"type": "address"
						},
						{
							"internalType": "enum SupplyChainContract.Role",
							"name": "role",
							"type": "uint8"
						},
						{
							"internalType": "uint256",
							"name": "balance",
							"type": "uint256"
						}
					],
					"stateMutability": "view",
					"type": "function"
				}
			],
			"devdoc": {
				"kind": "dev",
				"methods": {},
				"version": 1
			},
			"evm": {
				"assembly": "    /* \"PaymentsContract.sol\":60:1672  contract SupplyChainContract {\r... */\n  mstore(0x40, 0x80)\n    /* \"PaymentsContract.sol\":498:622  constructor() {\r... */\n  callvalue\n  dup1\n  iszero\n  tag_1\n  jumpi\n  0x00\n  dup1\n  revert\ntag_1:\n  pop\n    /* \"PaymentsContract.sol\":531:541  msg.sender */\n  caller\n    /* \"PaymentsContract.sol\":523:528  owner */\n  0x00\n  dup1\n    /* \"PaymentsContract.sol\":523:541  owner = msg.sender */\n  0x0100\n  exp\n  dup2\n  sload\n  dup2\n  0xffffffffffffffffffffffffffffffffffffffff\n  mul\n  not\n  and\n  swap1\n  dup4\n  0xffffffffffffffffffffffffffffffffffffffff\n  and\n  mul\n  or\n  swap1\n  sstore\n  pop\n    /* \"PaymentsContract.sol\":574:614  Stakeholder(owner, Role.Manufacturer, 0) */\n  mload(0x40)\n  dup1\n  0x60\n  add\n  0x40\n  mstore\n  dup1\n    /* \"PaymentsContract.sol\":586:591  owner */\n  0x00\n  dup1\n  sload\n  swap1\n  0x0100\n  exp\n  swap1\n  div\n  0xffffffffffffffffffffffffffffffffffffffff\n  and\n    /* \"PaymentsContract.sol\":574:614  Stakeholder(owner, Role.Manufacturer, 0) */\n  0xffffffffffffffffffffffffffffffffffffffff\n  and\n  dup2\n  mstore\n  0x20\n  add\n    /* \"PaymentsContract.sol\":593:610  Role.Manufacturer */\n  0x00\n    /* \"PaymentsContract.sol\":574:614  Stakeholder(owner, Role.Manufacturer, 0) */\n  0x03\n  dup2\n  gt\n  iszero\n  tag_4\n  jumpi\n  tag_5\n  tag_6\n  jump\t// in\ntag_5:\ntag_4:\n  dup2\n  mstore\n  0x20\n  add\n    /* \"PaymentsContract.sol\":612:613  0 */\n  0x00\n    /* \"PaymentsContract.sol\":574:614  Stakeholder(owner, Role.Manufacturer, 0) */\n  dup2\n  mstore\n  pop\n    /* \"PaymentsContract.sol\":552:564  stakeholders */\n  0x01\n    /* \"PaymentsContract.sol\":552:571  stakeholders[owner] */\n  0x00\n    /* \"PaymentsContract.sol\":565:570  owner */\n  dup1\n  0x00\n  swap1\n  sload\n  swap1\n  0x0100\n  exp\n  swap1\n  div\n  0xffffffffffffffffffffffffffffffffffffffff\n  and\n    /* \"PaymentsContract.sol\":552:571  stakeholders[owner] */\n  0xffffffffffffffffffffffffffffffffffffffff\n  and\n  0xffffffffffffffffffffffffffffffffffffffff\n  and\n  dup2\n  mstore\n  0x20\n  add\n  swap1\n  dup2\n  mstore\n  0x20\n  add\n  0x00\n  keccak256\n    /* \"PaymentsContract.sol\":552:614  stakeholders[owner] = Stakeholder(owner, Role.Manufacturer, 0) */\n  0x00\n  dup3\n  add\n  mload\n  dup2\n  0x00\n  add\n  exp(0x0100, 0x00)\n  dup2\n  sload\n  dup2\n  0xffffffffffffffffffffffffffffffffffffffff\n  mul\n  not\n  and\n  swap1\n  dup4\n  0xffffffffffffffffffffffffffffffffffffffff\n  and\n  mul\n  or\n  swap1\n  sstore\n  pop\n  0x20\n  dup3\n  add\n  mload\n  dup2\n  0x00\n  add\n  exp(0x0100, 0x14)\n  dup2\n  sload\n  dup2\n  0xff\n  mul\n  not\n  and\n  swap1\n  dup4\n  0x03\n  dup2\n  gt\n  iszero\n  tag_7\n  jumpi\n  tag_8\n  tag_6\n  jump\t// in\ntag_8:\ntag_7:\n  mul\n  or\n  swap1\n  sstore\n  pop\n  0x40\n  dup3\n  add\n  mload\n  dup2\n  0x01\n  add\n  sstore\n  swap1\n  pop\n  pop\n    /* \"PaymentsContract.sol\":60:1672  contract SupplyChainContract {\r... */\n  jump(tag_9)\n    /* \"#utility.yul\":7:187   */\ntag_6:\n    /* \"#utility.yul\":55:132   */\n  0x4e487b7100000000000000000000000000000000000000000000000000000000\n    /* \"#utility.yul\":52:53   */\n  0x00\n    /* \"#utility.yul\":45:133   */\n  mstore\n    /* \"#utility.yul\":152:156   */\n  0x21\n    /* \"#utility.yul\":149:150   */\n  0x04\n    /* \"#utility.yul\":142:157   */\n  mstore\n    /* \"#utility.yul\":176:180   */\n  0x24\n    /* \"#utility.yul\":173:174   */\n  0x00\n    /* \"#utility.yul\":166:181   */\n  revert\n    /* \"PaymentsContract.sol\":60:1672  contract SupplyChainContract {\r... */\ntag_9:\n  dataSize(sub_0)\n  dup1\n  dataOffset(sub_0)\n  0x00\n  codecopy\n  0x00\n  return\nstop\n\nsub_0: assembly {\n        /* \"PaymentsContract.sol\":60:1672  contract SupplyChainContract {\r... */\n      mstore(0x40, 0x80)\n      jumpi(tag_1, lt(calldatasize, 0x04))\n      shr(0xe0, calldataload(0x00))\n      dup1\n      0x4c87645d\n      eq\n      tag_2\n      jumpi\n      dup1\n      0x8da5cb5b\n      eq\n      tag_3\n      jumpi\n      dup1\n      0x935f4c18\n      eq\n      tag_4\n      jumpi\n      dup1\n      0xc07cfca9\n      eq\n      tag_5\n      jumpi\n      dup1\n      0xd0e30db0\n      eq\n      tag_6\n      jumpi\n      dup1\n      0xf8b2cb4f\n      eq\n      tag_7\n      jumpi\n    tag_1:\n      0x00\n      dup1\n      revert\n        /* \"PaymentsContract.sol\":798:1002  function addStakeholder(address _stakeholderAddress, Role _role) public onlyStakeholder(Role.Manufacturer) {\r... */\n    tag_2:\n      callvalue\n      dup1\n      iszero\n      tag_8\n      jumpi\n      0x00\n      dup1\n      revert\n    tag_8:\n      pop\n      tag_9\n      0x04\n      dup1\n      calldatasize\n      sub\n      dup2\n      add\n      swap1\n      tag_10\n      swap2\n      swap1\n      tag_11\n      jump\t// in\n    tag_10:\n      tag_12\n      jump\t// in\n    tag_9:\n      stop\n        /* \"PaymentsContract.sol\":96:116  address public owner */\n    tag_3:\n      callvalue\n      dup1\n      iszero\n      tag_13\n      jumpi\n      0x00\n      dup1\n      revert\n    tag_13:\n      pop\n      tag_14\n      tag_15\n      jump\t// in\n    tag_14:\n      mload(0x40)\n      tag_16\n      swap2\n      swap1\n      tag_17\n      jump\t// in\n    tag_16:\n      mload(0x40)\n      dup1\n      swap2\n      sub\n      swap1\n      return\n        /* \"PaymentsContract.sol\":1170:1515  function sendPayment(address payable _recipient, uint256 _amount) public onlyStakeholder(Role.Manufacturer) {\r... */\n    tag_4:\n      callvalue\n      dup1\n      iszero\n      tag_18\n      jumpi\n      0x00\n      dup1\n      revert\n    tag_18:\n      pop\n      tag_19\n      0x04\n      dup1\n      calldatasize\n      sub\n      dup2\n      add\n      swap1\n      tag_20\n      swap2\n      swap1\n      tag_21\n      jump\t// in\n    tag_20:\n      tag_22\n      jump\t// in\n    tag_19:\n      stop\n        /* \"PaymentsContract.sol\":310:361  mapping(address => Stakeholder) public stakeholders */\n    tag_5:\n      callvalue\n      dup1\n      iszero\n      tag_23\n      jumpi\n      0x00\n      dup1\n      revert\n    tag_23:\n      pop\n      tag_24\n      0x04\n      dup1\n      calldatasize\n      sub\n      dup2\n      add\n      swap1\n      tag_25\n      swap2\n      swap1\n      tag_26\n      jump\t// in\n    tag_25:\n      tag_27\n      jump\t// in\n    tag_24:\n      mload(0x40)\n      tag_28\n      swap4\n      swap3\n      swap2\n      swap1\n      tag_29\n      jump\t// in\n    tag_28:\n      mload(0x40)\n      dup1\n      swap2\n      sub\n      swap1\n      return\n        /* \"PaymentsContract.sol\":1010:1162  function deposit() public payable {\r... */\n    tag_6:\n      tag_30\n      tag_31\n      jump\t// in\n    tag_30:\n      stop\n        /* \"PaymentsContract.sol\":1523:1669  function getBalance(address _stakeholderAddress) public view returns (uint256) {\r... */\n    tag_7:\n      callvalue\n      dup1\n      iszero\n      tag_32\n      jumpi\n      0x00\n      dup1\n      revert\n    tag_32:\n      pop\n      tag_33\n      0x04\n      dup1\n      calldatasize\n      sub\n      dup2\n      add\n      swap1\n      tag_34\n      swap2\n      swap1\n      tag_26\n      jump\t// in\n    tag_34:\n      tag_35\n      jump\t// in\n    tag_33:\n      mload(0x40)\n      tag_36\n      swap2\n      swap1\n      tag_37\n      jump\t// in\n    tag_36:\n      mload(0x40)\n      dup1\n      swap2\n      sub\n      swap1\n      return\n        /* \"PaymentsContract.sol\":798:1002  function addStakeholder(address _stakeholderAddress, Role _role) public onlyStakeholder(Role.Manufacturer) {\r... */\n    tag_12:\n        /* \"PaymentsContract.sol\":886:903  Role.Manufacturer */\n      0x00\n        /* \"PaymentsContract.sol\":719:724  _role */\n      dup1\n        /* \"PaymentsContract.sol\":686:724  stakeholders[msg.sender].role == _role */\n      0x03\n      dup2\n      gt\n      iszero\n      tag_39\n      jumpi\n      tag_40\n      tag_41\n      jump\t// in\n    tag_40:\n    tag_39:\n        /* \"PaymentsContract.sol\":686:698  stakeholders */\n      0x01\n        /* \"PaymentsContract.sol\":686:710  stakeholders[msg.sender] */\n      0x00\n        /* \"PaymentsContract.sol\":699:709  msg.sender */\n      caller\n        /* \"PaymentsContract.sol\":686:710  stakeholders[msg.sender] */\n      0xffffffffffffffffffffffffffffffffffffffff\n      and\n      0xffffffffffffffffffffffffffffffffffffffff\n      and\n      dup2\n      mstore\n      0x20\n      add\n      swap1\n      dup2\n      mstore\n      0x20\n      add\n      0x00\n      keccak256\n        /* \"PaymentsContract.sol\":686:715  stakeholders[msg.sender].role */\n      0x00\n      add\n      0x14\n      swap1\n      sload\n      swap1\n      0x0100\n      exp\n      swap1\n      div\n      0xff\n      and\n        /* \"PaymentsContract.sol\":686:724  stakeholders[msg.sender].role == _role */\n      0x03\n      dup2\n      gt\n      iszero\n      tag_42\n      jumpi\n      tag_43\n      tag_41\n      jump\t// in\n    tag_43:\n    tag_42:\n      eq\n        /* \"PaymentsContract.sol\":678:770  require(stakeholders[msg.sender].role == _role, \"Only authorized stakeholders can do this.\") */\n      tag_44\n      jumpi\n      mload(0x40)\n      0x08c379a000000000000000000000000000000000000000000000000000000000\n      dup2\n      mstore\n      0x04\n      add\n      tag_45\n      swap1\n      tag_46\n      jump\t// in\n    tag_45:\n      mload(0x40)\n      dup1\n      swap2\n      sub\n      swap1\n      revert\n    tag_44:\n        /* \"PaymentsContract.sol\":952:994  Stakeholder(_stakeholderAddress, _role, 0) */\n      mload(0x40)\n      dup1\n      0x60\n      add\n      0x40\n      mstore\n      dup1\n        /* \"PaymentsContract.sol\":964:983  _stakeholderAddress */\n      dup5\n        /* \"PaymentsContract.sol\":952:994  Stakeholder(_stakeholderAddress, _role, 0) */\n      0xffffffffffffffffffffffffffffffffffffffff\n      and\n      dup2\n      mstore\n      0x20\n      add\n        /* \"PaymentsContract.sol\":985:990  _role */\n      dup4\n        /* \"PaymentsContract.sol\":952:994  Stakeholder(_stakeholderAddress, _role, 0) */\n      0x03\n      dup2\n      gt\n      iszero\n      tag_48\n      jumpi\n      tag_49\n      tag_41\n      jump\t// in\n    tag_49:\n    tag_48:\n      dup2\n      mstore\n      0x20\n      add\n        /* \"PaymentsContract.sol\":992:993  0 */\n      0x00\n        /* \"PaymentsContract.sol\":952:994  Stakeholder(_stakeholderAddress, _role, 0) */\n      dup2\n      mstore\n      pop\n        /* \"PaymentsContract.sol\":916:928  stakeholders */\n      0x01\n        /* \"PaymentsContract.sol\":916:949  stakeholders[_stakeholderAddress] */\n      0x00\n        /* \"PaymentsContract.sol\":929:948  _stakeholderAddress */\n      dup6\n        /* \"PaymentsContract.sol\":916:949  stakeholders[_stakeholderAddress] */\n      0xffffffffffffffffffffffffffffffffffffffff\n      and\n      0xffffffffffffffffffffffffffffffffffffffff\n      and\n      dup2\n      mstore\n      0x20\n      add\n      swap1\n      dup2\n      mstore\n      0x20\n      add\n      0x00\n      keccak256\n        /* \"PaymentsContract.sol\":916:994  stakeholders[_stakeholderAddress] = Stakeholder(_stakeholderAddress, _role, 0) */\n      0x00\n      dup3\n      add\n      mload\n      dup2\n      0x00\n      add\n      exp(0x0100, 0x00)\n      dup2\n      sload\n      dup2\n      0xffffffffffffffffffffffffffffffffffffffff\n      mul\n      not\n      and\n      swap1\n      dup4\n      0xffffffffffffffffffffffffffffffffffffffff\n      and\n      mul\n      or\n      swap1\n      sstore\n      pop\n      0x20\n      dup3\n      add\n      mload\n      dup2\n      0x00\n      add\n      exp(0x0100, 0x14)\n      dup2\n      sload\n      dup2\n      0xff\n      mul\n      not\n      and\n      swap1\n      dup4\n      0x03\n      dup2\n      gt\n      iszero\n      tag_50\n      jumpi\n      tag_51\n      tag_41\n      jump\t// in\n    tag_51:\n    tag_50:\n      mul\n      or\n      swap1\n      sstore\n      pop\n      0x40\n      dup3\n      add\n      mload\n      dup2\n      0x01\n      add\n      sstore\n      swap1\n      pop\n      pop\n        /* \"PaymentsContract.sol\":798:1002  function addStakeholder(address _stakeholderAddress, Role _role) public onlyStakeholder(Role.Manufacturer) {\r... */\n      pop\n      pop\n      pop\n      jump\t// out\n        /* \"PaymentsContract.sol\":96:116  address public owner */\n    tag_15:\n      0x00\n      dup1\n      sload\n      swap1\n      0x0100\n      exp\n      swap1\n      div\n      0xffffffffffffffffffffffffffffffffffffffff\n      and\n      dup2\n      jump\t// out\n        /* \"PaymentsContract.sol\":1170:1515  function sendPayment(address payable _recipient, uint256 _amount) public onlyStakeholder(Role.Manufacturer) {\r... */\n    tag_22:\n        /* \"PaymentsContract.sol\":1259:1276  Role.Manufacturer */\n      0x00\n        /* \"PaymentsContract.sol\":719:724  _role */\n      dup1\n        /* \"PaymentsContract.sol\":686:724  stakeholders[msg.sender].role == _role */\n      0x03\n      dup2\n      gt\n      iszero\n      tag_53\n      jumpi\n      tag_54\n      tag_41\n      jump\t// in\n    tag_54:\n    tag_53:\n        /* \"PaymentsContract.sol\":686:698  stakeholders */\n      0x01\n        /* \"PaymentsContract.sol\":686:710  stakeholders[msg.sender] */\n      0x00\n        /* \"PaymentsContract.sol\":699:709  msg.sender */\n      caller\n        /* \"PaymentsContract.sol\":686:710  stakeholders[msg.sender] */\n      0xffffffffffffffffffffffffffffffffffffffff\n      and\n      0xffffffffffffffffffffffffffffffffffffffff\n      and\n      dup2\n      mstore\n      0x20\n      add\n      swap1\n      dup2\n      mstore\n      0x20\n      add\n      0x00\n      keccak256\n        /* \"PaymentsContract.sol\":686:715  stakeholders[msg.sender].role */\n      0x00\n      add\n      0x14\n      swap1\n      sload\n      swap1\n      0x0100\n      exp\n      swap1\n      div\n      0xff\n      and\n        /* \"PaymentsContract.sol\":686:724  stakeholders[msg.sender].role == _role */\n      0x03\n      dup2\n      gt\n      iszero\n      tag_55\n      jumpi\n      tag_56\n      tag_41\n      jump\t// in\n    tag_56:\n    tag_55:\n      eq\n        /* \"PaymentsContract.sol\":678:770  require(stakeholders[msg.sender].role == _role, \"Only authorized stakeholders can do this.\") */\n      tag_57\n      jumpi\n      mload(0x40)\n      0x08c379a000000000000000000000000000000000000000000000000000000000\n      dup2\n      mstore\n      0x04\n      add\n      tag_58\n      swap1\n      tag_46\n      jump\t// in\n    tag_58:\n      mload(0x40)\n      dup1\n      swap2\n      sub\n      swap1\n      revert\n    tag_57:\n        /* \"PaymentsContract.sol\":1333:1340  _amount */\n      dup2\n        /* \"PaymentsContract.sol\":1297:1309  stakeholders */\n      0x01\n        /* \"PaymentsContract.sol\":1297:1321  stakeholders[msg.sender] */\n      0x00\n        /* \"PaymentsContract.sol\":1310:1320  msg.sender */\n      caller\n        /* \"PaymentsContract.sol\":1297:1321  stakeholders[msg.sender] */\n      0xffffffffffffffffffffffffffffffffffffffff\n      and\n      0xffffffffffffffffffffffffffffffffffffffff\n      and\n      dup2\n      mstore\n      0x20\n      add\n      swap1\n      dup2\n      mstore\n      0x20\n      add\n      0x00\n      keccak256\n        /* \"PaymentsContract.sol\":1297:1329  stakeholders[msg.sender].balance */\n      0x01\n      add\n      sload\n        /* \"PaymentsContract.sol\":1297:1340  stakeholders[msg.sender].balance >= _amount */\n      lt\n      iszero\n        /* \"PaymentsContract.sol\":1289:1366  require(stakeholders[msg.sender].balance >= _amount, \"Insufficient balance.\") */\n      tag_60\n      jumpi\n      mload(0x40)\n      0x08c379a000000000000000000000000000000000000000000000000000000000\n      dup2\n      mstore\n      0x04\n      add\n      tag_61\n      swap1\n      tag_62\n      jump\t// in\n    tag_61:\n      mload(0x40)\n      dup1\n      swap2\n      sub\n      swap1\n      revert\n    tag_60:\n        /* \"PaymentsContract.sol\":1413:1420  _amount */\n      dup2\n        /* \"PaymentsContract.sol\":1377:1389  stakeholders */\n      0x01\n        /* \"PaymentsContract.sol\":1377:1401  stakeholders[msg.sender] */\n      0x00\n        /* \"PaymentsContract.sol\":1390:1400  msg.sender */\n      caller\n        /* \"PaymentsContract.sol\":1377:1401  stakeholders[msg.sender] */\n      0xffffffffffffffffffffffffffffffffffffffff\n      and\n      0xffffffffffffffffffffffffffffffffffffffff\n      and\n      dup2\n      mstore\n      0x20\n      add\n      swap1\n      dup2\n      mstore\n      0x20\n      add\n      0x00\n      keccak256\n        /* \"PaymentsContract.sol\":1377:1409  stakeholders[msg.sender].balance */\n      0x01\n      add\n      0x00\n        /* \"PaymentsContract.sol\":1377:1420  stakeholders[msg.sender].balance -= _amount */\n      dup3\n      dup3\n      sload\n      tag_63\n      swap2\n      swap1\n      tag_64\n      jump\t// in\n    tag_63:\n      swap3\n      pop\n      pop\n      dup2\n      swap1\n      sstore\n      pop\n        /* \"PaymentsContract.sol\":1431:1441  _recipient */\n      dup3\n        /* \"PaymentsContract.sol\":1431:1450  _recipient.transfer */\n      0xffffffffffffffffffffffffffffffffffffffff\n      and\n        /* \"PaymentsContract.sol\":1431:1459  _recipient.transfer(_amount) */\n      0x08fc\n        /* \"PaymentsContract.sol\":1451:1458  _amount */\n      dup4\n        /* \"PaymentsContract.sol\":1431:1459  _recipient.transfer(_amount) */\n      swap1\n      dup2\n      iszero\n      mul\n      swap1\n      mload(0x40)\n      0x00\n      mload(0x40)\n      dup1\n      dup4\n      sub\n      dup2\n      dup6\n      dup9\n      dup9\n      call\n      swap4\n      pop\n      pop\n      pop\n      pop\n      iszero\n      dup1\n      iszero\n      tag_66\n      jumpi\n      returndatasize\n      0x00\n      dup1\n      returndatacopy\n      revert(0x00, returndatasize)\n    tag_66:\n      pop\n        /* \"PaymentsContract.sol\":1487:1497  _recipient */\n      dup3\n        /* \"PaymentsContract.sol\":1475:1507  PaymentSent(_recipient, _amount) */\n      0xffffffffffffffffffffffffffffffffffffffff\n      and\n      0x47db2abce6d5fbcd80ffd9b4ba74dcde804a746ef732bc7f8a70fabfc912c590\n        /* \"PaymentsContract.sol\":1499:1506  _amount */\n      dup4\n        /* \"PaymentsContract.sol\":1475:1507  PaymentSent(_recipient, _amount) */\n      mload(0x40)\n      tag_67\n      swap2\n      swap1\n      tag_37\n      jump\t// in\n    tag_67:\n      mload(0x40)\n      dup1\n      swap2\n      sub\n      swap1\n      log2\n        /* \"PaymentsContract.sol\":1170:1515  function sendPayment(address payable _recipient, uint256 _amount) public onlyStakeholder(Role.Manufacturer) {\r... */\n      pop\n      pop\n      pop\n      jump\t// out\n        /* \"PaymentsContract.sol\":310:361  mapping(address => Stakeholder) public stakeholders */\n    tag_27:\n      mstore(0x20, 0x01)\n      dup1\n      0x00\n      mstore\n      keccak256(0x00, 0x40)\n      0x00\n      swap2\n      pop\n      swap1\n      pop\n      dup1\n      0x00\n      add\n      0x00\n      swap1\n      sload\n      swap1\n      0x0100\n      exp\n      swap1\n      div\n      0xffffffffffffffffffffffffffffffffffffffff\n      and\n      swap1\n      dup1\n      0x00\n      add\n      0x14\n      swap1\n      sload\n      swap1\n      0x0100\n      exp\n      swap1\n      div\n      0xff\n      and\n      swap1\n      dup1\n      0x01\n      add\n      sload\n      swap1\n      pop\n      dup4\n      jump\t// out\n        /* \"PaymentsContract.sol\":1010:1162  function deposit() public payable {\r... */\n    tag_31:\n        /* \"PaymentsContract.sol\":1091:1100  msg.value */\n      callvalue\n        /* \"PaymentsContract.sol\":1055:1067  stakeholders */\n      0x01\n        /* \"PaymentsContract.sol\":1055:1079  stakeholders[msg.sender] */\n      0x00\n        /* \"PaymentsContract.sol\":1068:1078  msg.sender */\n      caller\n        /* \"PaymentsContract.sol\":1055:1079  stakeholders[msg.sender] */\n      0xffffffffffffffffffffffffffffffffffffffff\n      and\n      0xffffffffffffffffffffffffffffffffffffffff\n      and\n      dup2\n      mstore\n      0x20\n      add\n      swap1\n      dup2\n      mstore\n      0x20\n      add\n      0x00\n      keccak256\n        /* \"PaymentsContract.sol\":1055:1087  stakeholders[msg.sender].balance */\n      0x01\n      add\n      0x00\n        /* \"PaymentsContract.sol\":1055:1100  stakeholders[msg.sender].balance += msg.value */\n      dup3\n      dup3\n      sload\n      tag_69\n      swap2\n      swap1\n      tag_70\n      jump\t// in\n    tag_69:\n      swap3\n      pop\n      pop\n      dup2\n      swap1\n      sstore\n      pop\n        /* \"PaymentsContract.sol\":1132:1142  msg.sender */\n      caller\n        /* \"PaymentsContract.sol\":1116:1154  PaymentReceived(msg.sender, msg.value) */\n      0xffffffffffffffffffffffffffffffffffffffff\n      and\n      0x6ef95f06320e7a25a04a175ca677b7052bdd97131872c2192525a629f51be770\n        /* \"PaymentsContract.sol\":1144:1153  msg.value */\n      callvalue\n        /* \"PaymentsContract.sol\":1116:1154  PaymentReceived(msg.sender, msg.value) */\n      mload(0x40)\n      tag_71\n      swap2\n      swap1\n      tag_37\n      jump\t// in\n    tag_71:\n      mload(0x40)\n      dup1\n      swap2\n      sub\n      swap1\n      log2\n        /* \"PaymentsContract.sol\":1010:1162  function deposit() public payable {\r... */\n      jump\t// out\n        /* \"PaymentsContract.sol\":1523:1669  function getBalance(address _stakeholderAddress) public view returns (uint256) {\r... */\n    tag_35:\n        /* \"PaymentsContract.sol\":1593:1600  uint256 */\n      0x00\n        /* \"PaymentsContract.sol\":1620:1632  stakeholders */\n      0x01\n        /* \"PaymentsContract.sol\":1620:1653  stakeholders[_stakeholderAddress] */\n      0x00\n        /* \"PaymentsContract.sol\":1633:1652  _stakeholderAddress */\n      dup4\n        /* \"PaymentsContract.sol\":1620:1653  stakeholders[_stakeholderAddress] */\n      0xffffffffffffffffffffffffffffffffffffffff\n      and\n      0xffffffffffffffffffffffffffffffffffffffff\n      and\n      dup2\n      mstore\n      0x20\n      add\n      swap1\n      dup2\n      mstore\n      0x20\n      add\n      0x00\n      keccak256\n        /* \"PaymentsContract.sol\":1620:1661  stakeholders[_stakeholderAddress].balance */\n      0x01\n      add\n      sload\n        /* \"PaymentsContract.sol\":1613:1661  return stakeholders[_stakeholderAddress].balance */\n      swap1\n      pop\n        /* \"PaymentsContract.sol\":1523:1669  function getBalance(address _stakeholderAddress) public view returns (uint256) {\r... */\n      swap2\n      swap1\n      pop\n      jump\t// out\n        /* \"#utility.yul\":7:146   */\n    tag_74:\n        /* \"#utility.yul\":53:58   */\n      0x00\n        /* \"#utility.yul\":91:97   */\n      dup2\n        /* \"#utility.yul\":78:98   */\n      calldataload\n        /* \"#utility.yul\":69:98   */\n      swap1\n      pop\n        /* \"#utility.yul\":107:140   */\n      tag_76\n        /* \"#utility.yul\":134:139   */\n      dup2\n        /* \"#utility.yul\":107:140   */\n      tag_77\n      jump\t// in\n    tag_76:\n        /* \"#utility.yul\":7:146   */\n      swap3\n      swap2\n      pop\n      pop\n      jump\t// out\n        /* \"#utility.yul\":152:307   */\n    tag_78:\n        /* \"#utility.yul\":206:211   */\n      0x00\n        /* \"#utility.yul\":244:250   */\n      dup2\n        /* \"#utility.yul\":231:251   */\n      calldataload\n        /* \"#utility.yul\":222:251   */\n      swap1\n      pop\n        /* \"#utility.yul\":260:301   */\n      tag_80\n        /* \"#utility.yul\":295:300   */\n      dup2\n        /* \"#utility.yul\":260:301   */\n      tag_81\n      jump\t// in\n    tag_80:\n        /* \"#utility.yul\":152:307   */\n      swap3\n      swap2\n      pop\n      pop\n      jump\t// out\n        /* \"#utility.yul\":313:464   */\n    tag_82:\n        /* \"#utility.yul\":365:370   */\n      0x00\n        /* \"#utility.yul\":403:409   */\n      dup2\n        /* \"#utility.yul\":390:410   */\n      calldataload\n        /* \"#utility.yul\":381:410   */\n      swap1\n      pop\n        /* \"#utility.yul\":419:458   */\n      tag_84\n        /* \"#utility.yul\":452:457   */\n      dup2\n        /* \"#utility.yul\":419:458   */\n      tag_85\n      jump\t// in\n    tag_84:\n        /* \"#utility.yul\":313:464   */\n      swap3\n      swap2\n      pop\n      pop\n      jump\t// out\n        /* \"#utility.yul\":470:609   */\n    tag_86:\n        /* \"#utility.yul\":516:521   */\n      0x00\n        /* \"#utility.yul\":554:560   */\n      dup2\n        /* \"#utility.yul\":541:561   */\n      calldataload\n        /* \"#utility.yul\":532:561   */\n      swap1\n      pop\n        /* \"#utility.yul\":570:603   */\n      tag_88\n        /* \"#utility.yul\":597:602   */\n      dup2\n        /* \"#utility.yul\":570:603   */\n      tag_89\n      jump\t// in\n    tag_88:\n        /* \"#utility.yul\":470:609   */\n      swap3\n      swap2\n      pop\n      pop\n      jump\t// out\n        /* \"#utility.yul\":615:944   */\n    tag_26:\n        /* \"#utility.yul\":674:680   */\n      0x00\n        /* \"#utility.yul\":723:725   */\n      0x20\n        /* \"#utility.yul\":711:720   */\n      dup3\n        /* \"#utility.yul\":702:709   */\n      dup5\n        /* \"#utility.yul\":698:721   */\n      sub\n        /* \"#utility.yul\":694:726   */\n      slt\n        /* \"#utility.yul\":691:810   */\n      iszero\n      tag_91\n      jumpi\n        /* \"#utility.yul\":729:808   */\n      tag_92\n      tag_93\n      jump\t// in\n    tag_92:\n        /* \"#utility.yul\":691:810   */\n    tag_91:\n        /* \"#utility.yul\":849:850   */\n      0x00\n        /* \"#utility.yul\":874:927   */\n      tag_94\n        /* \"#utility.yul\":919:926   */\n      dup5\n        /* \"#utility.yul\":910:916   */\n      dup3\n        /* \"#utility.yul\":899:908   */\n      dup6\n        /* \"#utility.yul\":895:917   */\n      add\n        /* \"#utility.yul\":874:927   */\n      tag_74\n      jump\t// in\n    tag_94:\n        /* \"#utility.yul\":864:927   */\n      swap2\n      pop\n        /* \"#utility.yul\":820:937   */\n      pop\n        /* \"#utility.yul\":615:944   */\n      swap3\n      swap2\n      pop\n      pop\n      jump\t// out\n        /* \"#utility.yul\":950:1440   */\n    tag_21:\n        /* \"#utility.yul\":1026:1032   */\n      0x00\n        /* \"#utility.yul\":1034:1040   */\n      dup1\n        /* \"#utility.yul\":1083:1085   */\n      0x40\n        /* \"#utility.yul\":1071:1080   */\n      dup4\n        /* \"#utility.yul\":1062:1069   */\n      dup6\n        /* \"#utility.yul\":1058:1081   */\n      sub\n        /* \"#utility.yul\":1054:1086   */\n      slt\n        /* \"#utility.yul\":1051:1170   */\n      iszero\n      tag_96\n      jumpi\n        /* \"#utility.yul\":1089:1168   */\n      tag_97\n      tag_93\n      jump\t// in\n    tag_97:\n        /* \"#utility.yul\":1051:1170   */\n    tag_96:\n        /* \"#utility.yul\":1209:1210   */\n      0x00\n        /* \"#utility.yul\":1234:1295   */\n      tag_98\n        /* \"#utility.yul\":1287:1294   */\n      dup6\n        /* \"#utility.yul\":1278:1284   */\n      dup3\n        /* \"#utility.yul\":1267:1276   */\n      dup7\n        /* \"#utility.yul\":1263:1285   */\n      add\n        /* \"#utility.yul\":1234:1295   */\n      tag_78\n      jump\t// in\n    tag_98:\n        /* \"#utility.yul\":1224:1295   */\n      swap3\n      pop\n        /* \"#utility.yul\":1180:1305   */\n      pop\n        /* \"#utility.yul\":1344:1346   */\n      0x20\n        /* \"#utility.yul\":1370:1423   */\n      tag_99\n        /* \"#utility.yul\":1415:1422   */\n      dup6\n        /* \"#utility.yul\":1406:1412   */\n      dup3\n        /* \"#utility.yul\":1395:1404   */\n      dup7\n        /* \"#utility.yul\":1391:1413   */\n      add\n        /* \"#utility.yul\":1370:1423   */\n      tag_86\n      jump\t// in\n    tag_99:\n        /* \"#utility.yul\":1360:1423   */\n      swap2\n      pop\n        /* \"#utility.yul\":1315:1433   */\n      pop\n        /* \"#utility.yul\":950:1440   */\n      swap3\n      pop\n      swap3\n      swap1\n      pop\n      jump\t// out\n        /* \"#utility.yul\":1446:1932   */\n    tag_11:\n        /* \"#utility.yul\":1520:1526   */\n      0x00\n        /* \"#utility.yul\":1528:1534   */\n      dup1\n        /* \"#utility.yul\":1577:1579   */\n      0x40\n        /* \"#utility.yul\":1565:1574   */\n      dup4\n        /* \"#utility.yul\":1556:1563   */\n      dup6\n        /* \"#utility.yul\":1552:1575   */\n      sub\n        /* \"#utility.yul\":1548:1580   */\n      slt\n        /* \"#utility.yul\":1545:1664   */\n      iszero\n      tag_101\n      jumpi\n        /* \"#utility.yul\":1583:1662   */\n      tag_102\n      tag_93\n      jump\t// in\n    tag_102:\n        /* \"#utility.yul\":1545:1664   */\n    tag_101:\n        /* \"#utility.yul\":1703:1704   */\n      0x00\n        /* \"#utility.yul\":1728:1781   */\n      tag_103\n        /* \"#utility.yul\":1773:1780   */\n      dup6\n        /* \"#utility.yul\":1764:1770   */\n      dup3\n        /* \"#utility.yul\":1753:1762   */\n      dup7\n        /* \"#utility.yul\":1749:1771   */\n      add\n        /* \"#utility.yul\":1728:1781   */\n      tag_74\n      jump\t// in\n    tag_103:\n        /* \"#utility.yul\":1718:1781   */\n      swap3\n      pop\n        /* \"#utility.yul\":1674:1791   */\n      pop\n        /* \"#utility.yul\":1830:1832   */\n      0x20\n        /* \"#utility.yul\":1856:1915   */\n      tag_104\n        /* \"#utility.yul\":1907:1914   */\n      dup6\n        /* \"#utility.yul\":1898:1904   */\n      dup3\n        /* \"#utility.yul\":1887:1896   */\n      dup7\n        /* \"#utility.yul\":1883:1905   */\n      add\n        /* \"#utility.yul\":1856:1915   */\n      tag_82\n      jump\t// in\n    tag_104:\n        /* \"#utility.yul\":1846:1915   */\n      swap2\n      pop\n        /* \"#utility.yul\":1801:1925   */\n      pop\n        /* \"#utility.yul\":1446:1932   */\n      swap3\n      pop\n      swap3\n      swap1\n      pop\n      jump\t// out\n        /* \"#utility.yul\":1938:2056   */\n    tag_105:\n        /* \"#utility.yul\":2025:2049   */\n      tag_107\n        /* \"#utility.yul\":2043:2048   */\n      dup2\n        /* \"#utility.yul\":2025:2049   */\n      tag_108\n      jump\t// in\n    tag_107:\n        /* \"#utility.yul\":2020:2023   */\n      dup3\n        /* \"#utility.yul\":2013:2050   */\n      mstore\n        /* \"#utility.yul\":1938:2056   */\n      pop\n      pop\n      jump\t// out\n        /* \"#utility.yul\":2062:2201   */\n    tag_109:\n        /* \"#utility.yul\":2153:2194   */\n      tag_111\n        /* \"#utility.yul\":2188:2193   */\n      dup2\n        /* \"#utility.yul\":2153:2194   */\n      tag_112\n      jump\t// in\n    tag_111:\n        /* \"#utility.yul\":2148:2151   */\n      dup3\n        /* \"#utility.yul\":2141:2195   */\n      mstore\n        /* \"#utility.yul\":2062:2201   */\n      pop\n      pop\n      jump\t// out\n        /* \"#utility.yul\":2207:2573   */\n    tag_113:\n        /* \"#utility.yul\":2349:2352   */\n      0x00\n        /* \"#utility.yul\":2370:2437   */\n      tag_115\n        /* \"#utility.yul\":2434:2436   */\n      0x29\n        /* \"#utility.yul\":2429:2432   */\n      dup4\n        /* \"#utility.yul\":2370:2437   */\n      tag_116\n      jump\t// in\n    tag_115:\n        /* \"#utility.yul\":2363:2437   */\n      swap2\n      pop\n        /* \"#utility.yul\":2446:2539   */\n      tag_117\n        /* \"#utility.yul\":2535:2538   */\n      dup3\n        /* \"#utility.yul\":2446:2539   */\n      tag_118\n      jump\t// in\n    tag_117:\n        /* \"#utility.yul\":2564:2566   */\n      0x40\n        /* \"#utility.yul\":2559:2562   */\n      dup3\n        /* \"#utility.yul\":2555:2567   */\n      add\n        /* \"#utility.yul\":2548:2567   */\n      swap1\n      pop\n        /* \"#utility.yul\":2207:2573   */\n      swap2\n      swap1\n      pop\n      jump\t// out\n        /* \"#utility.yul\":2579:2945   */\n    tag_119:\n        /* \"#utility.yul\":2721:2724   */\n      0x00\n        /* \"#utility.yul\":2742:2809   */\n      tag_121\n        /* \"#utility.yul\":2806:2808   */\n      0x15\n        /* \"#utility.yul\":2801:2804   */\n      dup4\n        /* \"#utility.yul\":2742:2809   */\n      tag_116\n      jump\t// in\n    tag_121:\n        /* \"#utility.yul\":2735:2809   */\n      swap2\n      pop\n        /* \"#utility.yul\":2818:2911   */\n      tag_122\n        /* \"#utility.yul\":2907:2910   */\n      dup3\n        /* \"#utility.yul\":2818:2911   */\n      tag_123\n      jump\t// in\n    tag_122:\n        /* \"#utility.yul\":2936:2938   */\n      0x20\n        /* \"#utility.yul\":2931:2934   */\n      dup3\n        /* \"#utility.yul\":2927:2939   */\n      add\n        /* \"#utility.yul\":2920:2939   */\n      swap1\n      pop\n        /* \"#utility.yul\":2579:2945   */\n      swap2\n      swap1\n      pop\n      jump\t// out\n        /* \"#utility.yul\":2951:3069   */\n    tag_124:\n        /* \"#utility.yul\":3038:3062   */\n      tag_126\n        /* \"#utility.yul\":3056:3061   */\n      dup2\n        /* \"#utility.yul\":3038:3062   */\n      tag_127\n      jump\t// in\n    tag_126:\n        /* \"#utility.yul\":3033:3036   */\n      dup3\n        /* \"#utility.yul\":3026:3063   */\n      mstore\n        /* \"#utility.yul\":2951:3069   */\n      pop\n      pop\n      jump\t// out\n        /* \"#utility.yul\":3075:3297   */\n    tag_17:\n        /* \"#utility.yul\":3168:3172   */\n      0x00\n        /* \"#utility.yul\":3206:3208   */\n      0x20\n        /* \"#utility.yul\":3195:3204   */\n      dup3\n        /* \"#utility.yul\":3191:3209   */\n      add\n        /* \"#utility.yul\":3183:3209   */\n      swap1\n      pop\n        /* \"#utility.yul\":3219:3290   */\n      tag_129\n        /* \"#utility.yul\":3287:3288   */\n      0x00\n        /* \"#utility.yul\":3276:3285   */\n      dup4\n        /* \"#utility.yul\":3272:3289   */\n      add\n        /* \"#utility.yul\":3263:3269   */\n      dup5\n        /* \"#utility.yul\":3219:3290   */\n      tag_105\n      jump\t// in\n    tag_129:\n        /* \"#utility.yul\":3075:3297   */\n      swap3\n      swap2\n      pop\n      pop\n      jump\t// out\n        /* \"#utility.yul\":3303:3753   */\n    tag_29:\n        /* \"#utility.yul\":3456:3460   */\n      0x00\n        /* \"#utility.yul\":3494:3496   */\n      0x60\n        /* \"#utility.yul\":3483:3492   */\n      dup3\n        /* \"#utility.yul\":3479:3497   */\n      add\n        /* \"#utility.yul\":3471:3497   */\n      swap1\n      pop\n        /* \"#utility.yul\":3507:3578   */\n      tag_131\n        /* \"#utility.yul\":3575:3576   */\n      0x00\n        /* \"#utility.yul\":3564:3573   */\n      dup4\n        /* \"#utility.yul\":3560:3577   */\n      add\n        /* \"#utility.yul\":3551:3557   */\n      dup7\n        /* \"#utility.yul\":3507:3578   */\n      tag_105\n      jump\t// in\n    tag_131:\n        /* \"#utility.yul\":3588:3664   */\n      tag_132\n        /* \"#utility.yul\":3660:3662   */\n      0x20\n        /* \"#utility.yul\":3649:3658   */\n      dup4\n        /* \"#utility.yul\":3645:3663   */\n      add\n        /* \"#utility.yul\":3636:3642   */\n      dup6\n        /* \"#utility.yul\":3588:3664   */\n      tag_109\n      jump\t// in\n    tag_132:\n        /* \"#utility.yul\":3674:3746   */\n      tag_133\n        /* \"#utility.yul\":3742:3744   */\n      0x40\n        /* \"#utility.yul\":3731:3740   */\n      dup4\n        /* \"#utility.yul\":3727:3745   */\n      add\n        /* \"#utility.yul\":3718:3724   */\n      dup5\n        /* \"#utility.yul\":3674:3746   */\n      tag_124\n      jump\t// in\n    tag_133:\n        /* \"#utility.yul\":3303:3753   */\n      swap5\n      swap4\n      pop\n      pop\n      pop\n      pop\n      jump\t// out\n        /* \"#utility.yul\":3759:4178   */\n    tag_46:\n        /* \"#utility.yul\":3925:3929   */\n      0x00\n        /* \"#utility.yul\":3963:3965   */\n      0x20\n        /* \"#utility.yul\":3952:3961   */\n      dup3\n        /* \"#utility.yul\":3948:3966   */\n      add\n        /* \"#utility.yul\":3940:3966   */\n      swap1\n      pop\n        /* \"#utility.yul\":4012:4021   */\n      dup2\n        /* \"#utility.yul\":4006:4010   */\n      dup2\n        /* \"#utility.yul\":4002:4022   */\n      sub\n        /* \"#utility.yul\":3998:3999   */\n      0x00\n        /* \"#utility.yul\":3987:3996   */\n      dup4\n        /* \"#utility.yul\":3983:4000   */\n      add\n        /* \"#utility.yul\":3976:4023   */\n      mstore\n        /* \"#utility.yul\":4040:4171   */\n      tag_135\n        /* \"#utility.yul\":4166:4170   */\n      dup2\n        /* \"#utility.yul\":4040:4171   */\n      tag_113\n      jump\t// in\n    tag_135:\n        /* \"#utility.yul\":4032:4171   */\n      swap1\n      pop\n        /* \"#utility.yul\":3759:4178   */\n      swap2\n      swap1\n      pop\n      jump\t// out\n        /* \"#utility.yul\":4184:4603   */\n    tag_62:\n        /* \"#utility.yul\":4350:4354   */\n      0x00\n        /* \"#utility.yul\":4388:4390   */\n      0x20\n        /* \"#utility.yul\":4377:4386   */\n      dup3\n        /* \"#utility.yul\":4373:4391   */\n      add\n        /* \"#utility.yul\":4365:4391   */\n      swap1\n      pop\n        /* \"#utility.yul\":4437:4446   */\n      dup2\n        /* \"#utility.yul\":4431:4435   */\n      dup2\n        /* \"#utility.yul\":4427:4447   */\n      sub\n        /* \"#utility.yul\":4423:4424   */\n      0x00\n        /* \"#utility.yul\":4412:4421   */\n      dup4\n        /* \"#utility.yul\":4408:4425   */\n      add\n        /* \"#utility.yul\":4401:4448   */\n      mstore\n        /* \"#utility.yul\":4465:4596   */\n      tag_137\n        /* \"#utility.yul\":4591:4595   */\n      dup2\n        /* \"#utility.yul\":4465:4596   */\n      tag_119\n      jump\t// in\n    tag_137:\n        /* \"#utility.yul\":4457:4596   */\n      swap1\n      pop\n        /* \"#utility.yul\":4184:4603   */\n      swap2\n      swap1\n      pop\n      jump\t// out\n        /* \"#utility.yul\":4609:4831   */\n    tag_37:\n        /* \"#utility.yul\":4702:4706   */\n      0x00\n        /* \"#utility.yul\":4740:4742   */\n      0x20\n        /* \"#utility.yul\":4729:4738   */\n      dup3\n        /* \"#utility.yul\":4725:4743   */\n      add\n        /* \"#utility.yul\":4717:4743   */\n      swap1\n      pop\n        /* \"#utility.yul\":4753:4824   */\n      tag_139\n        /* \"#utility.yul\":4821:4822   */\n      0x00\n        /* \"#utility.yul\":4810:4819   */\n      dup4\n        /* \"#utility.yul\":4806:4823   */\n      add\n        /* \"#utility.yul\":4797:4803   */\n      dup5\n        /* \"#utility.yul\":4753:4824   */\n      tag_124\n      jump\t// in\n    tag_139:\n        /* \"#utility.yul\":4609:4831   */\n      swap3\n      swap2\n      pop\n      pop\n      jump\t// out\n        /* \"#utility.yul\":4918:5087   */\n    tag_116:\n        /* \"#utility.yul\":5002:5013   */\n      0x00\n        /* \"#utility.yul\":5036:5042   */\n      dup3\n        /* \"#utility.yul\":5031:5034   */\n      dup3\n        /* \"#utility.yul\":5024:5043   */\n      mstore\n        /* \"#utility.yul\":5076:5080   */\n      0x20\n        /* \"#utility.yul\":5071:5074   */\n      dup3\n        /* \"#utility.yul\":5067:5081   */\n      add\n        /* \"#utility.yul\":5052:5081   */\n      swap1\n      pop\n        /* \"#utility.yul\":4918:5087   */\n      swap3\n      swap2\n      pop\n      pop\n      jump\t// out\n        /* \"#utility.yul\":5093:5398   */\n    tag_70:\n        /* \"#utility.yul\":5133:5136   */\n      0x00\n        /* \"#utility.yul\":5152:5172   */\n      tag_144\n        /* \"#utility.yul\":5170:5171   */\n      dup3\n        /* \"#utility.yul\":5152:5172   */\n      tag_127\n      jump\t// in\n    tag_144:\n        /* \"#utility.yul\":5147:5172   */\n      swap2\n      pop\n        /* \"#utility.yul\":5186:5206   */\n      tag_145\n        /* \"#utility.yul\":5204:5205   */\n      dup4\n        /* \"#utility.yul\":5186:5206   */\n      tag_127\n      jump\t// in\n    tag_145:\n        /* \"#utility.yul\":5181:5206   */\n      swap3\n      pop\n        /* \"#utility.yul\":5340:5341   */\n      dup3\n        /* \"#utility.yul\":5272:5338   */\n      0xffffffffffffffffffffffffffffffffffffffffffffffffffffffffffffffff\n        /* \"#utility.yul\":5268:5342   */\n      sub\n        /* \"#utility.yul\":5265:5266   */\n      dup3\n        /* \"#utility.yul\":5262:5343   */\n      gt\n        /* \"#utility.yul\":5259:5366   */\n      iszero\n      tag_146\n      jumpi\n        /* \"#utility.yul\":5346:5364   */\n      tag_147\n      tag_148\n      jump\t// in\n    tag_147:\n        /* \"#utility.yul\":5259:5366   */\n    tag_146:\n        /* \"#utility.yul\":5390:5391   */\n      dup3\n        /* \"#utility.yul\":5387:5388   */\n      dup3\n        /* \"#utility.yul\":5383:5392   */\n      add\n        /* \"#utility.yul\":5376:5392   */\n      swap1\n      pop\n        /* \"#utility.yul\":5093:5398   */\n      swap3\n      swap2\n      pop\n      pop\n      jump\t// out\n        /* \"#utility.yul\":5404:5595   */\n    tag_64:\n        /* \"#utility.yul\":5444:5448   */\n      0x00\n        /* \"#utility.yul\":5464:5484   */\n      tag_150\n        /* \"#utility.yul\":5482:5483   */\n      dup3\n        /* \"#utility.yul\":5464:5484   */\n      tag_127\n      jump\t// in\n    tag_150:\n        /* \"#utility.yul\":5459:5484   */\n      swap2\n      pop\n        /* \"#utility.yul\":5498:5518   */\n      tag_151\n        /* \"#utility.yul\":5516:5517   */\n      dup4\n        /* \"#utility.yul\":5498:5518   */\n      tag_127\n      jump\t// in\n    tag_151:\n        /* \"#utility.yul\":5493:5518   */\n      swap3\n      pop\n        /* \"#utility.yul\":5537:5538   */\n      dup3\n        /* \"#utility.yul\":5534:5535   */\n      dup3\n        /* \"#utility.yul\":5531:5539   */\n      lt\n        /* \"#utility.yul\":5528:5562   */\n      iszero\n      tag_152\n      jumpi\n        /* \"#utility.yul\":5542:5560   */\n      tag_153\n      tag_148\n      jump\t// in\n    tag_153:\n        /* \"#utility.yul\":5528:5562   */\n    tag_152:\n        /* \"#utility.yul\":5587:5588   */\n      dup3\n        /* \"#utility.yul\":5584:5585   */\n      dup3\n        /* \"#utility.yul\":5580:5589   */\n      sub\n        /* \"#utility.yul\":5572:5589   */\n      swap1\n      pop\n        /* \"#utility.yul\":5404:5595   */\n      swap3\n      swap2\n      pop\n      pop\n      jump\t// out\n        /* \"#utility.yul\":5601:5697   */\n    tag_108:\n        /* \"#utility.yul\":5638:5645   */\n      0x00\n        /* \"#utility.yul\":5667:5691   */\n      tag_155\n        /* \"#utility.yul\":5685:5690   */\n      dup3\n        /* \"#utility.yul\":5667:5691   */\n      tag_156\n      jump\t// in\n    tag_155:\n        /* \"#utility.yul\":5656:5691   */\n      swap1\n      pop\n        /* \"#utility.yul\":5601:5697   */\n      swap2\n      swap1\n      pop\n      jump\t// out\n        /* \"#utility.yul\":5703:5807   */\n    tag_157:\n        /* \"#utility.yul\":5748:5755   */\n      0x00\n        /* \"#utility.yul\":5777:5801   */\n      tag_159\n        /* \"#utility.yul\":5795:5800   */\n      dup3\n        /* \"#utility.yul\":5777:5801   */\n      tag_156\n      jump\t// in\n    tag_159:\n        /* \"#utility.yul\":5766:5801   */\n      swap1\n      pop\n        /* \"#utility.yul\":5703:5807   */\n      swap2\n      swap1\n      pop\n      jump\t// out\n        /* \"#utility.yul\":5813:5936   */\n    tag_160:\n        /* \"#utility.yul\":5856:5863   */\n      0x00\n        /* \"#utility.yul\":5885:5890   */\n      dup2\n        /* \"#utility.yul\":5874:5890   */\n      swap1\n      pop\n        /* \"#utility.yul\":5891:5930   */\n      tag_162\n        /* \"#utility.yul\":5924:5929   */\n      dup3\n        /* \"#utility.yul\":5891:5930   */\n      tag_163\n      jump\t// in\n    tag_162:\n        /* \"#utility.yul\":5813:5936   */\n      swap2\n      swap1\n      pop\n      jump\t// out\n        /* \"#utility.yul\":5942:6068   */\n    tag_156:\n        /* \"#utility.yul\":5979:5986   */\n      0x00\n        /* \"#utility.yul\":6019:6061   */\n      0xffffffffffffffffffffffffffffffffffffffff\n        /* \"#utility.yul\":6012:6017   */\n      dup3\n        /* \"#utility.yul\":6008:6062   */\n      and\n        /* \"#utility.yul\":5997:6062   */\n      swap1\n      pop\n        /* \"#utility.yul\":5942:6068   */\n      swap2\n      swap1\n      pop\n      jump\t// out\n        /* \"#utility.yul\":6074:6151   */\n    tag_127:\n        /* \"#utility.yul\":6111:6118   */\n      0x00\n        /* \"#utility.yul\":6140:6145   */\n      dup2\n        /* \"#utility.yul\":6129:6145   */\n      swap1\n      pop\n        /* \"#utility.yul\":6074:6151   */\n      swap2\n      swap1\n      pop\n      jump\t// out\n        /* \"#utility.yul\":6157:6280   */\n    tag_112:\n        /* \"#utility.yul\":6211:6220   */\n      0x00\n        /* \"#utility.yul\":6244:6274   */\n      tag_167\n        /* \"#utility.yul\":6268:6273   */\n      dup3\n        /* \"#utility.yul\":6244:6274   */\n      tag_160\n      jump\t// in\n    tag_167:\n        /* \"#utility.yul\":6231:6274   */\n      swap1\n      pop\n        /* \"#utility.yul\":6157:6280   */\n      swap2\n      swap1\n      pop\n      jump\t// out\n        /* \"#utility.yul\":6286:6466   */\n    tag_148:\n        /* \"#utility.yul\":6334:6411   */\n      0x4e487b7100000000000000000000000000000000000000000000000000000000\n        /* \"#utility.yul\":6331:6332   */\n      0x00\n        /* \"#utility.yul\":6324:6412   */\n      mstore\n        /* \"#utility.yul\":6431:6435   */\n      0x11\n        /* \"#utility.yul\":6428:6429   */\n      0x04\n        /* \"#utility.yul\":6421:6436   */\n      mstore\n        /* \"#utility.yul\":6455:6459   */\n      0x24\n        /* \"#utility.yul\":6452:6453   */\n      0x00\n        /* \"#utility.yul\":6445:6460   */\n      revert\n        /* \"#utility.yul\":6472:6652   */\n    tag_41:\n        /* \"#utility.yul\":6520:6597   */\n      0x4e487b7100000000000000000000000000000000000000000000000000000000\n        /* \"#utility.yul\":6517:6518   */\n      0x00\n        /* \"#utility.yul\":6510:6598   */\n      mstore\n        /* \"#utility.yul\":6617:6621   */\n      0x21\n        /* \"#utility.yul\":6614:6615   */\n      0x04\n        /* \"#utility.yul\":6607:6622   */\n      mstore\n        /* \"#utility.yul\":6641:6645   */\n      0x24\n        /* \"#utility.yul\":6638:6639   */\n      0x00\n        /* \"#utility.yul\":6631:6646   */\n      revert\n        /* \"#utility.yul\":6781:6898   */\n    tag_93:\n        /* \"#utility.yul\":6890:6891   */\n      0x00\n        /* \"#utility.yul\":6887:6888   */\n      dup1\n        /* \"#utility.yul\":6880:6892   */\n      revert\n        /* \"#utility.yul\":6904:7132   */\n    tag_118:\n        /* \"#utility.yul\":7044:7078   */\n      0x4f6e6c7920617574686f72697a6564207374616b65686f6c646572732063616e\n        /* \"#utility.yul\":7040:7041   */\n      0x00\n        /* \"#utility.yul\":7032:7038   */\n      dup3\n        /* \"#utility.yul\":7028:7042   */\n      add\n        /* \"#utility.yul\":7021:7079   */\n      mstore\n        /* \"#utility.yul\":7113:7124   */\n      0x20646f20746869732e0000000000000000000000000000000000000000000000\n        /* \"#utility.yul\":7108:7110   */\n      0x20\n        /* \"#utility.yul\":7100:7106   */\n      dup3\n        /* \"#utility.yul\":7096:7111   */\n      add\n        /* \"#utility.yul\":7089:7125   */\n      mstore\n        /* \"#utility.yul\":6904:7132   */\n      pop\n      jump\t// out\n        /* \"#utility.yul\":7138:7309   */\n    tag_123:\n        /* \"#utility.yul\":7278:7301   */\n      0x496e73756666696369656e742062616c616e63652e0000000000000000000000\n        /* \"#utility.yul\":7274:7275   */\n      0x00\n        /* \"#utility.yul\":7266:7272   */\n      dup3\n        /* \"#utility.yul\":7262:7276   */\n      add\n        /* \"#utility.yul\":7255:7302   */\n      mstore\n        /* \"#utility.yul\":7138:7309   */\n      pop\n      jump\t// out\n        /* \"#utility.yul\":7315:7426   */\n    tag_163:\n        /* \"#utility.yul\":7394:7395   */\n      0x04\n        /* \"#utility.yul\":7387:7392   */\n      dup2\n        /* \"#utility.yul\":7384:7396   */\n      lt\n        /* \"#utility.yul\":7374:7420   */\n      tag_176\n      jumpi\n        /* \"#utility.yul\":7400:7418   */\n      tag_177\n      tag_41\n      jump\t// in\n    tag_177:\n        /* \"#utility.yul\":7374:7420   */\n    tag_176:\n        /* \"#utility.yul\":7315:7426   */\n      pop\n      jump\t// out\n        /* \"#utility.yul\":7432:7554   */\n    tag_77:\n        /* \"#utility.yul\":7505:7529   */\n      tag_179\n        /* \"#utility.yul\":7523:7528   */\n      dup2\n        /* \"#utility.yul\":7505:7529   */\n      tag_108\n      jump\t// in\n    tag_179:\n        /* \"#utility.yul\":7498:7503   */\n      dup2\n        /* \"#utility.yul\":7495:7530   */\n      eq\n        /* \"#utility.yul\":7485:7548   */\n      tag_180\n      jumpi\n        /* \"#utility.yul\":7544:7545   */\n      0x00\n        /* \"#utility.yul\":7541:7542   */\n      dup1\n        /* \"#utility.yul\":7534:7546   */\n      revert\n        /* \"#utility.yul\":7485:7548   */\n    tag_180:\n        /* \"#utility.yul\":7432:7554   */\n      pop\n      jump\t// out\n        /* \"#utility.yul\":7560:7698   */\n    tag_81:\n        /* \"#utility.yul\":7641:7673   */\n      tag_182\n        /* \"#utility.yul\":7667:7672   */\n      dup2\n        /* \"#utility.yul\":7641:7673   */\n      tag_157\n      jump\t// in\n    tag_182:\n        /* \"#utility.yul\":7634:7639   */\n      dup2\n        /* \"#utility.yul\":7631:7674   */\n      eq\n        /* \"#utility.yul\":7621:7692   */\n      tag_183\n      jumpi\n        /* \"#utility.yul\":7688:7689   */\n      0x00\n        /* \"#utility.yul\":7685:7686   */\n      dup1\n        /* \"#utility.yul\":7678:7690   */\n      revert\n        /* \"#utility.yul\":7621:7692   */\n    tag_183:\n        /* \"#utility.yul\":7560:7698   */\n      pop\n      jump\t// out\n        /* \"#utility.yul\":7704:7809   */\n    tag_85:\n        /* \"#utility.yul\":7783:7784   */\n      0x04\n        /* \"#utility.yul\":7776:7781   */\n      dup2\n        /* \"#utility.yul\":7773:7785   */\n      lt\n        /* \"#utility.yul\":7763:7803   */\n      tag_185\n      jumpi\n        /* \"#utility.yul\":7799:7800   */\n      0x00\n        /* \"#utility.yul\":7796:7797   */\n      dup1\n        /* \"#utility.yul\":7789:7801   */\n      revert\n        /* \"#utility.yul\":7763:7803   */\n    tag_185:\n        /* \"#utility.yul\":7704:7809   */\n      pop\n      jump\t// out\n        /* \"#utility.yul\":7815:7937   */\n    tag_89:\n        /* \"#utility.yul\":7888:7912   */\n      tag_187\n        /* \"#utility.yul\":7906:7911   */\n      dup2\n        /* \"#utility.yul\":7888:7912   */\n      tag_127\n      jump\t// in\n    tag_187:\n        /* \"#utility.yul\":7881:7886   */\n      dup2\n        /* \"#utility.yul\":7878:7913   */\n      eq\n        /* \"#utility.yul\":7868:7931   */\n      tag_188\n      jumpi\n        /* \"#utility.yul\":7927:7928   */\n      0x00\n        /* \"#utility.yul\":7924:7925   */\n      dup1\n        /* \"#utility.yul\":7917:7929   */\n      revert\n        /* \"#utility.yul\":7868:7931   */\n    tag_188:\n        /* \"#utility.yul\":7815:7937   */\n      pop\n      jump\t// out\n\n    auxdata: 0xa2646970667358221220f153d9077568d0c0ba521d376c4f53bcfa5cd1ab35ffba6e3f24d02e05ae95eb64736f6c63430008070033\n}\n",
				"bytecode": {
					"linkReferences": {},
					"object": "608060405234801561001057600080fd5b50336000806101000a81548173ffffffffffffffffffffffffffffffffffffffff021916908373ffffffffffffffffffffffffffffffffffffffff160217905550604051806060016040528060008054906101000a900473ffffffffffffffffffffffffffffffffffffffff1673ffffffffffffffffffffffffffffffffffffffff168152602001600060038111156100ac576100ab61019f565b5b81526020016000815250600160008060009054906101000a900473ffffffffffffffffffffffffffffffffffffffff1673ffffffffffffffffffffffffffffffffffffffff1673ffffffffffffffffffffffffffffffffffffffff16815260200190815260200160002060008201518160000160006101000a81548173ffffffffffffffffffffffffffffffffffffffff021916908373ffffffffffffffffffffffffffffffffffffffff16021790555060208201518160000160146101000a81548160ff021916908360038111156101885761018761019f565b5b0217905550604082015181600101559050506101ce565b7f4e487b7100000000000000000000000000000000000000000000000000000000600052602160045260246000fd5b610b68806101dd6000396000f3fe6080604052600436106100555760003560e01c80634c87645d1461005a5780638da5cb5b14610083578063935f4c18146100ae578063c07cfca9146100d7578063d0e30db014610116578063f8b2cb4f14610120575b600080fd5b34801561006657600080fd5b50610081600480360381019061007c9190610780565b61015d565b005b34801561008f57600080fd5b50610098610320565b6040516100a59190610833565b60405180910390f35b3480156100ba57600080fd5b506100d560048036038101906100d09190610740565b610344565b005b3480156100e357600080fd5b506100fe60048036038101906100f99190610713565b610573565b60405161010d9392919061084e565b60405180910390f35b61011e6105ca565b005b34801561012c57600080fd5b5061014760048036038101906101429190610713565b610673565b60405161015491906108c5565b60405180910390f35b600080600381111561017257610171610a1d565b5b600160003373ffffffffffffffffffffffffffffffffffffffff1673ffffffffffffffffffffffffffffffffffffffff16815260200190815260200160002060000160149054906101000a900460ff1660038111156101d4576101d3610a1d565b5b14610214576040517f08c379a000000000000000000000000000000000000000000000000000000000815260040161020b90610885565b60405180910390fd5b60405180606001604052808473ffffffffffffffffffffffffffffffffffffffff16815260200183600381111561024e5761024d610a1d565b5b81526020016000815250600160008573ffffffffffffffffffffffffffffffffffffffff1673ffffffffffffffffffffffffffffffffffffffff16815260200190815260200160002060008201518160000160006101000a81548173ffffffffffffffffffffffffffffffffffffffff021916908373ffffffffffffffffffffffffffffffffffffffff16021790555060208201518160000160146101000a81548160ff0219169083600381111561030957610308610a1d565b5b021790555060408201518160010155905050505050565b60008054906101000a900473ffffffffffffffffffffffffffffffffffffffff1681565b600080600381111561035957610358610a1d565b5b600160003373ffffffffffffffffffffffffffffffffffffffff1673ffffffffffffffffffffffffffffffffffffffff16815260200190815260200160002060000160149054906101000a900460ff1660038111156103bb576103ba610a1d565b5b146103fb576040517f08c379a00000000000000000000000000000000000000000000000000000000081526004016103f290610885565b60405180910390fd5b81600160003373ffffffffffffffffffffffffffffffffffffffff1673ffffffffffffffffffffffffffffffffffffffff168152602001908152602001600020600101541015610480576040517f08c379a0000000000000000000000000000000000000000000000000000000008152600401610477906108a5565b60405180910390fd5b81600160003373ffffffffffffffffffffffffffffffffffffffff1673ffffffffffffffffffffffffffffffffffffffff16815260200190815260200160002060010160008282546104d29190610947565b925050819055508273ffffffffffffffffffffffffffffffffffffffff166108fc839081150290604051600060405180830381858888f1935050505015801561051f573d6000803e3d6000fd5b508273ffffffffffffffffffffffffffffffffffffffff167f47db2abce6d5fbcd80ffd9b4ba74dcde804a746ef732bc7f8a70fabfc912c5908360405161056691906108c5565b60405180910390a2505050565b60016020528060005260406000206000915090508060000160009054906101000a900473ffffffffffffffffffffffffffffffffffffffff16908060000160149054906101000a900460ff16908060010154905083565b34600160003373ffffffffffffffffffffffffffffffffffffffff1673ffffffffffffffffffffffffffffffffffffffff168152602001908152602001600020600101600082825461061c91906108f1565b925050819055503373ffffffffffffffffffffffffffffffffffffffff167f6ef95f06320e7a25a04a175ca677b7052bdd97131872c2192525a629f51be7703460405161066991906108c5565b60405180910390a2565b6000600160008373ffffffffffffffffffffffffffffffffffffffff1673ffffffffffffffffffffffffffffffffffffffff168152602001908152602001600020600101549050919050565b6000813590506106ce81610add565b92915050565b6000813590506106e381610af4565b92915050565b6000813590506106f881610b0b565b92915050565b60008135905061070d81610b1b565b92915050565b60006020828403121561072957610728610a4c565b5b6000610737848285016106bf565b91505092915050565b6000806040838503121561075757610756610a4c565b5b6000610765858286016106d4565b9250506020610776858286016106fe565b9150509250929050565b6000806040838503121561079757610796610a4c565b5b60006107a5858286016106bf565b92505060206107b6858286016106e9565b9150509250929050565b6107c98161097b565b82525050565b6107d8816109dc565b82525050565b60006107eb6029836108e0565b91506107f682610a51565b604082019050919050565b600061080e6015836108e0565b915061081982610aa0565b602082019050919050565b61082d816109d2565b82525050565b600060208201905061084860008301846107c0565b92915050565b600060608201905061086360008301866107c0565b61087060208301856107cf565b61087d6040830184610824565b949350505050565b6000602082019050818103600083015261089e816107de565b9050919050565b600060208201905081810360008301526108be81610801565b9050919050565b60006020820190506108da6000830184610824565b92915050565b600082825260208201905092915050565b60006108fc826109d2565b9150610907836109d2565b9250827fffffffffffffffffffffffffffffffffffffffffffffffffffffffffffffffff0382111561093c5761093b6109ee565b5b828201905092915050565b6000610952826109d2565b915061095d836109d2565b9250828210156109705761096f6109ee565b5b828203905092915050565b6000610986826109b2565b9050919050565b6000610998826109b2565b9050919050565b60008190506109ad82610ac9565b919050565b600073ffffffffffffffffffffffffffffffffffffffff82169050919050565b6000819050919050565b60006109e78261099f565b9050919050565b7f4e487b7100000000000000000000000000000000000000000000000000000000600052601160045260246000fd5b7f4e487b7100000000000000000000000000000000000000000000000000000000600052602160045260246000fd5b600080fd5b7f4f6e6c7920617574686f72697a6564207374616b65686f6c646572732063616e60008201527f20646f20746869732e0000000000000000000000000000000000000000000000602082015250565b7f496e73756666696369656e742062616c616e63652e0000000000000000000000600082015250565b60048110610ada57610ad9610a1d565b5b50565b610ae68161097b565b8114610af157600080fd5b50565b610afd8161098d565b8114610b0857600080fd5b50565b60048110610b1857600080fd5b50565b610b24816109d2565b8114610b2f57600080fd5b5056fea2646970667358221220f153d9077568d0c0ba521d376c4f53bcfa5cd1ab35ffba6e3f24d02e05ae95eb64736f6c63430008070033",
					"opcodes": "PUSH1 0x80 PUSH1 0x40 MSTORE CALLVALUE DUP1 ISZERO PUSH2 0x10 JUMPI PUSH1 0x0 DUP1 REVERT JUMPDEST POP CALLER PUSH1 0x0 DUP1 PUSH2 0x100 EXP DUP2 SLOAD DUP2 PUSH20 0xFFFFFFFFFFFFFFFFFFFFFFFFFFFFFFFFFFFFFFFF MUL NOT AND SWAP1 DUP4 PUSH20 0xFFFFFFFFFFFFFFFFFFFFFFFFFFFFFFFFFFFFFFFF AND MUL OR SWAP1 SSTORE POP PUSH1 0x40 MLOAD DUP1 PUSH1 0x60 ADD PUSH1 0x40 MSTORE DUP1 PUSH1 0x0 DUP1 SLOAD SWAP1 PUSH2 0x100 EXP SWAP1 DIV PUSH20 0xFFFFFFFFFFFFFFFFFFFFFFFFFFFFFFFFFFFFFFFF AND PUSH20 0xFFFFFFFFFFFFFFFFFFFFFFFFFFFFFFFFFFFFFFFF AND DUP2 MSTORE PUSH1 0x20 ADD PUSH1 0x0 PUSH1 0x3 DUP2 GT ISZERO PUSH2 0xAC JUMPI PUSH2 0xAB PUSH2 0x19F JUMP JUMPDEST JUMPDEST DUP2 MSTORE PUSH1 0x20 ADD PUSH1 0x0 DUP2 MSTORE POP PUSH1 0x1 PUSH1 0x0 DUP1 PUSH1 0x0 SWAP1 SLOAD SWAP1 PUSH2 0x100 EXP SWAP1 DIV PUSH20 0xFFFFFFFFFFFFFFFFFFFFFFFFFFFFFFFFFFFFFFFF AND PUSH20 0xFFFFFFFFFFFFFFFFFFFFFFFFFFFFFFFFFFFFFFFF AND PUSH20 0xFFFFFFFFFFFFFFFFFFFFFFFFFFFFFFFFFFFFFFFF AND DUP2 MSTORE PUSH1 0x20 ADD SWAP1 DUP2 MSTORE PUSH1 0x20 ADD PUSH1 0x0 KECCAK256 PUSH1 0x0 DUP3 ADD MLOAD DUP2 PUSH1 0x0 ADD PUSH1 0x0 PUSH2 0x100 EXP DUP2 SLOAD DUP2 PUSH20 0xFFFFFFFFFFFFFFFFFFFFFFFFFFFFFFFFFFFFFFFF MUL NOT AND SWAP1 DUP4 PUSH20 0xFFFFFFFFFFFFFFFFFFFFFFFFFFFFFFFFFFFFFFFF AND MUL OR SWAP1 SSTORE POP PUSH1 0x20 DUP3 ADD MLOAD DUP2 PUSH1 0x0 ADD PUSH1 0x14 PUSH2 0x100 EXP DUP2 SLOAD DUP2 PUSH1 0xFF MUL NOT AND SWAP1 DUP4 PUSH1 0x3 DUP2 GT ISZERO PUSH2 0x188 JUMPI PUSH2 0x187 PUSH2 0x19F JUMP JUMPDEST JUMPDEST MUL OR SWAP1 SSTORE POP PUSH1 0x40 DUP3 ADD MLOAD DUP2 PUSH1 0x1 ADD SSTORE SWAP1 POP POP PUSH2 0x1CE JUMP JUMPDEST PUSH32 0x4E487B7100000000000000000000000000000000000000000000000000000000 PUSH1 0x0 MSTORE PUSH1 0x21 PUSH1 0x4 MSTORE PUSH1 0x24 PUSH1 0x0 REVERT JUMPDEST PUSH2 0xB68 DUP1 PUSH2 0x1DD PUSH1 0x0 CODECOPY PUSH1 0x0 RETURN INVALID PUSH1 0x80 PUSH1 0x40 MSTORE PUSH1 0x4 CALLDATASIZE LT PUSH2 0x55 JUMPI PUSH1 0x0 CALLDATALOAD PUSH1 0xE0 SHR DUP1 PUSH4 0x4C87645D EQ PUSH2 0x5A JUMPI DUP1 PUSH4 0x8DA5CB5B EQ PUSH2 0x83 JUMPI DUP1 PUSH4 0x935F4C18 EQ PUSH2 0xAE JUMPI DUP1 PUSH4 0xC07CFCA9 EQ PUSH2 0xD7 JUMPI DUP1 PUSH4 0xD0E30DB0 EQ PUSH2 0x116 JUMPI DUP1 PUSH4 0xF8B2CB4F EQ PUSH2 0x120 JUMPI JUMPDEST PUSH1 0x0 DUP1 REVERT JUMPDEST CALLVALUE DUP1 ISZERO PUSH2 0x66 JUMPI PUSH1 0x0 DUP1 REVERT JUMPDEST POP PUSH2 0x81 PUSH1 0x4 DUP1 CALLDATASIZE SUB DUP2 ADD SWAP1 PUSH2 0x7C SWAP2 SWAP1 PUSH2 0x780 JUMP JUMPDEST PUSH2 0x15D JUMP JUMPDEST STOP JUMPDEST CALLVALUE DUP1 ISZERO PUSH2 0x8F JUMPI PUSH1 0x0 DUP1 REVERT JUMPDEST POP PUSH2 0x98 PUSH2 0x320 JUMP JUMPDEST PUSH1 0x40 MLOAD PUSH2 0xA5 SWAP2 SWAP1 PUSH2 0x833 JUMP JUMPDEST PUSH1 0x40 MLOAD DUP1 SWAP2 SUB SWAP1 RETURN JUMPDEST CALLVALUE DUP1 ISZERO PUSH2 0xBA JUMPI PUSH1 0x0 DUP1 REVERT JUMPDEST POP PUSH2 0xD5 PUSH1 0x4 DUP1 CALLDATASIZE SUB DUP2 ADD SWAP1 PUSH2 0xD0 SWAP2 SWAP1 PUSH2 0x740 JUMP JUMPDEST PUSH2 0x344 JUMP JUMPDEST STOP JUMPDEST CALLVALUE DUP1 ISZERO PUSH2 0xE3 JUMPI PUSH1 0x0 DUP1 REVERT JUMPDEST POP PUSH2 0xFE PUSH1 0x4 DUP1 CALLDATASIZE SUB DUP2 ADD SWAP1 PUSH2 0xF9 SWAP2 SWAP1 PUSH2 0x713 JUMP JUMPDEST PUSH2 0x573 JUMP JUMPDEST PUSH1 0x40 MLOAD PUSH2 0x10D SWAP4 SWAP3 SWAP2 SWAP1 PUSH2 0x84E JUMP JUMPDEST PUSH1 0x40 MLOAD DUP1 SWAP2 SUB SWAP1 RETURN JUMPDEST PUSH2 0x11E PUSH2 0x5CA JUMP JUMPDEST STOP JUMPDEST CALLVALUE DUP1 ISZERO PUSH2 0x12C JUMPI PUSH1 0x0 DUP1 REVERT JUMPDEST POP PUSH2 0x147 PUSH1 0x4 DUP1 CALLDATASIZE SUB DUP2 ADD SWAP1 PUSH2 0x142 SWAP2 SWAP1 PUSH2 0x713 JUMP JUMPDEST PUSH2 0x673 JUMP JUMPDEST PUSH1 0x40 MLOAD PUSH2 0x154 SWAP2 SWAP1 PUSH2 0x8C5 JUMP JUMPDEST PUSH1 0x40 MLOAD DUP1 SWAP2 SUB SWAP1 RETURN JUMPDEST PUSH1 0x0 DUP1 PUSH1 0x3 DUP2 GT ISZERO PUSH2 0x172 JUMPI PUSH2 0x171 PUSH2 0xA1D JUMP JUMPDEST JUMPDEST PUSH1 0x1 PUSH1 0x0 CALLER PUSH20 0xFFFFFFFFFFFFFFFFFFFFFFFFFFFFFFFFFFFFFFFF AND PUSH20 0xFFFFFFFFFFFFFFFFFFFFFFFFFFFFFFFFFFFFFFFF AND DUP2 MSTORE PUSH1 0x20 ADD SWAP1 DUP2 MSTORE PUSH1 0x20 ADD PUSH1 0x0 KECCAK256 PUSH1 0x0 ADD PUSH1 0x14 SWAP1 SLOAD SWAP1 PUSH2 0x100 EXP SWAP1 DIV PUSH1 0xFF AND PUSH1 0x3 DUP2 GT ISZERO PUSH2 0x1D4 JUMPI PUSH2 0x1D3 PUSH2 0xA1D JUMP JUMPDEST JUMPDEST EQ PUSH2 0x214 JUMPI PUSH1 0x40 MLOAD PUSH32 0x8C379A000000000000000000000000000000000000000000000000000000000 DUP2 MSTORE PUSH1 0x4 ADD PUSH2 0x20B SWAP1 PUSH2 0x885 JUMP JUMPDEST PUSH1 0x40 MLOAD DUP1 SWAP2 SUB SWAP1 REVERT JUMPDEST PUSH1 0x40 MLOAD DUP1 PUSH1 0x60 ADD PUSH1 0x40 MSTORE DUP1 DUP5 PUSH20 0xFFFFFFFFFFFFFFFFFFFFFFFFFFFFFFFFFFFFFFFF AND DUP2 MSTORE PUSH1 0x20 ADD DUP4 PUSH1 0x3 DUP2 GT ISZERO PUSH2 0x24E JUMPI PUSH2 0x24D PUSH2 0xA1D JUMP JUMPDEST JUMPDEST DUP2 MSTORE PUSH1 0x20 ADD PUSH1 0x0 DUP2 MSTORE POP PUSH1 0x1 PUSH1 0x0 DUP6 PUSH20 0xFFFFFFFFFFFFFFFFFFFFFFFFFFFFFFFFFFFFFFFF AND PUSH20 0xFFFFFFFFFFFFFFFFFFFFFFFFFFFFFFFFFFFFFFFF AND DUP2 MSTORE PUSH1 0x20 ADD SWAP1 DUP2 MSTORE PUSH1 0x20 ADD PUSH1 0x0 KECCAK256 PUSH1 0x0 DUP3 ADD MLOAD DUP2 PUSH1 0x0 ADD PUSH1 0x0 PUSH2 0x100 EXP DUP2 SLOAD DUP2 PUSH20 0xFFFFFFFFFFFFFFFFFFFFFFFFFFFFFFFFFFFFFFFF MUL NOT AND SWAP1 DUP4 PUSH20 0xFFFFFFFFFFFFFFFFFFFFFFFFFFFFFFFFFFFFFFFF AND MUL OR SWAP1 SSTORE POP PUSH1 0x20 DUP3 ADD MLOAD DUP2 PUSH1 0x0 ADD PUSH1 0x14 PUSH2 0x100 EXP DUP2 SLOAD DUP2 PUSH1 0xFF MUL NOT AND SWAP1 DUP4 PUSH1 0x3 DUP2 GT ISZERO PUSH2 0x309 JUMPI PUSH2 0x308 PUSH2 0xA1D JUMP JUMPDEST JUMPDEST MUL OR SWAP1 SSTORE POP PUSH1 0x40 DUP3 ADD MLOAD DUP2 PUSH1 0x1 ADD SSTORE SWAP1 POP POP POP POP POP JUMP JUMPDEST PUSH1 0x0 DUP1 SLOAD SWAP1 PUSH2 0x100 EXP SWAP1 DIV PUSH20 0xFFFFFFFFFFFFFFFFFFFFFFFFFFFFFFFFFFFFFFFF AND DUP2 JUMP JUMPDEST PUSH1 0x0 DUP1 PUSH1 0x3 DUP2 GT ISZERO PUSH2 0x359 JUMPI PUSH2 0x358 PUSH2 0xA1D JUMP JUMPDEST JUMPDEST PUSH1 0x1 PUSH1 0x0 CALLER PUSH20 0xFFFFFFFFFFFFFFFFFFFFFFFFFFFFFFFFFFFFFFFF AND PUSH20 0xFFFFFFFFFFFFFFFFFFFFFFFFFFFFFFFFFFFFFFFF AND DUP2 MSTORE PUSH1 0x20 ADD SWAP1 DUP2 MSTORE PUSH1 0x20 ADD PUSH1 0x0 KECCAK256 PUSH1 0x0 ADD PUSH1 0x14 SWAP1 SLOAD SWAP1 PUSH2 0x100 EXP SWAP1 DIV PUSH1 0xFF AND PUSH1 0x3 DUP2 GT ISZERO PUSH2 0x3BB JUMPI PUSH2 0x3BA PUSH2 0xA1D JUMP JUMPDEST JUMPDEST EQ PUSH2 0x3FB JUMPI PUSH1 0x40 MLOAD PUSH32 0x8C379A000000000000000000000000000000000000000000000000000000000 DUP2 MSTORE PUSH1 0x4 ADD PUSH2 0x3F2 SWAP1 PUSH2 0x885 JUMP JUMPDEST PUSH1 0x40 MLOAD DUP1 SWAP2 SUB SWAP1 REVERT JUMPDEST DUP2 PUSH1 0x1 PUSH1 0x0 CALLER PUSH20 0xFFFFFFFFFFFFFFFFFFFFFFFFFFFFFFFFFFFFFFFF AND PUSH20 0xFFFFFFFFFFFFFFFFFFFFFFFFFFFFFFFFFFFFFFFF AND DUP2 MSTORE PUSH1 0x20 ADD SWAP1 DUP2 MSTORE PUSH1 0x20 ADD PUSH1 0x0 KECCAK256 PUSH1 0x1 ADD SLOAD LT ISZERO PUSH2 0x480 JUMPI PUSH1 0x40 MLOAD PUSH32 0x8C379A000000000000000000000000000000000000000000000000000000000 DUP2 MSTORE PUSH1 0x4 ADD PUSH2 0x477 SWAP1 PUSH2 0x8A5 JUMP JUMPDEST PUSH1 0x40 MLOAD DUP1 SWAP2 SUB SWAP1 REVERT JUMPDEST DUP2 PUSH1 0x1 PUSH1 0x0 CALLER PUSH20 0xFFFFFFFFFFFFFFFFFFFFFFFFFFFFFFFFFFFFFFFF AND PUSH20 0xFFFFFFFFFFFFFFFFFFFFFFFFFFFFFFFFFFFFFFFF AND DUP2 MSTORE PUSH1 0x20 ADD SWAP1 DUP2 MSTORE PUSH1 0x20 ADD PUSH1 0x0 KECCAK256 PUSH1 0x1 ADD PUSH1 0x0 DUP3 DUP3 SLOAD PUSH2 0x4D2 SWAP2 SWAP1 PUSH2 0x947 JUMP JUMPDEST SWAP3 POP POP DUP2 SWAP1 SSTORE POP DUP3 PUSH20 0xFFFFFFFFFFFFFFFFFFFFFFFFFFFFFFFFFFFFFFFF AND PUSH2 0x8FC DUP4 SWAP1 DUP2 ISZERO MUL SWAP1 PUSH1 0x40 MLOAD PUSH1 0x0 PUSH1 0x40 MLOAD DUP1 DUP4 SUB DUP2 DUP6 DUP9 DUP9 CALL SWAP4 POP POP POP POP ISZERO DUP1 ISZERO PUSH2 0x51F JUMPI RETURNDATASIZE PUSH1 0x0 DUP1 RETURNDATACOPY RETURNDATASIZE PUSH1 0x0 REVERT JUMPDEST POP DUP3 PUSH20 0xFFFFFFFFFFFFFFFFFFFFFFFFFFFFFFFFFFFFFFFF AND PUSH32 0x47DB2ABCE6D5FBCD80FFD9B4BA74DCDE804A746EF732BC7F8A70FABFC912C590 DUP4 PUSH1 0x40 MLOAD PUSH2 0x566 SWAP2 SWAP1 PUSH2 0x8C5 JUMP JUMPDEST PUSH1 0x40 MLOAD DUP1 SWAP2 SUB SWAP1 LOG2 POP POP POP JUMP JUMPDEST PUSH1 0x1 PUSH1 0x20 MSTORE DUP1 PUSH1 0x0 MSTORE PUSH1 0x40 PUSH1 0x0 KECCAK256 PUSH1 0x0 SWAP2 POP SWAP1 POP DUP1 PUSH1 0x0 ADD PUSH1 0x0 SWAP1 SLOAD SWAP1 PUSH2 0x100 EXP SWAP1 DIV PUSH20 0xFFFFFFFFFFFFFFFFFFFFFFFFFFFFFFFFFFFFFFFF AND SWAP1 DUP1 PUSH1 0x0 ADD PUSH1 0x14 SWAP1 SLOAD SWAP1 PUSH2 0x100 EXP SWAP1 DIV PUSH1 0xFF AND SWAP1 DUP1 PUSH1 0x1 ADD SLOAD SWAP1 POP DUP4 JUMP JUMPDEST CALLVALUE PUSH1 0x1 PUSH1 0x0 CALLER PUSH20 0xFFFFFFFFFFFFFFFFFFFFFFFFFFFFFFFFFFFFFFFF AND PUSH20 0xFFFFFFFFFFFFFFFFFFFFFFFFFFFFFFFFFFFFFFFF AND DUP2 MSTORE PUSH1 0x20 ADD SWAP1 DUP2 MSTORE PUSH1 0x20 ADD PUSH1 0x0 KECCAK256 PUSH1 0x1 ADD PUSH1 0x0 DUP3 DUP3 SLOAD PUSH2 0x61C SWAP2 SWAP1 PUSH2 0x8F1 JUMP JUMPDEST SWAP3 POP POP DUP2 SWAP1 SSTORE POP CALLER PUSH20 0xFFFFFFFFFFFFFFFFFFFFFFFFFFFFFFFFFFFFFFFF AND PUSH32 0x6EF95F06320E7A25A04A175CA677B7052BDD97131872C2192525A629F51BE770 CALLVALUE PUSH1 0x40 MLOAD PUSH2 0x669 SWAP2 SWAP1 PUSH2 0x8C5 JUMP JUMPDEST PUSH1 0x40 MLOAD DUP1 SWAP2 SUB SWAP1 LOG2 JUMP JUMPDEST PUSH1 0x0 PUSH1 0x1 PUSH1 0x0 DUP4 PUSH20 0xFFFFFFFFFFFFFFFFFFFFFFFFFFFFFFFFFFFFFFFF AND PUSH20 0xFFFFFFFFFFFFFFFFFFFFFFFFFFFFFFFFFFFFFFFF AND DUP2 MSTORE PUSH1 0x20 ADD SWAP1 DUP2 MSTORE PUSH1 0x20 ADD PUSH1 0x0 KECCAK256 PUSH1 0x1 ADD SLOAD SWAP1 POP SWAP2 SWAP1 POP JUMP JUMPDEST PUSH1 0x0 DUP2 CALLDATALOAD SWAP1 POP PUSH2 0x6CE DUP2 PUSH2 0xADD JUMP JUMPDEST SWAP3 SWAP2 POP POP JUMP JUMPDEST PUSH1 0x0 DUP2 CALLDATALOAD SWAP1 POP PUSH2 0x6E3 DUP2 PUSH2 0xAF4 JUMP JUMPDEST SWAP3 SWAP2 POP POP JUMP JUMPDEST PUSH1 0x0 DUP2 CALLDATALOAD SWAP1 POP PUSH2 0x6F8 DUP2 PUSH2 0xB0B JUMP JUMPDEST SWAP3 SWAP2 POP POP JUMP JUMPDEST PUSH1 0x0 DUP2 CALLDATALOAD SWAP1 POP PUSH2 0x70D DUP2 PUSH2 0xB1B JUMP JUMPDEST SWAP3 SWAP2 POP POP JUMP JUMPDEST PUSH1 0x0 PUSH1 0x20 DUP3 DUP5 SUB SLT ISZERO PUSH2 0x729 JUMPI PUSH2 0x728 PUSH2 0xA4C JUMP JUMPDEST JUMPDEST PUSH1 0x0 PUSH2 0x737 DUP5 DUP3 DUP6 ADD PUSH2 0x6BF JUMP JUMPDEST SWAP2 POP POP SWAP3 SWAP2 POP POP JUMP JUMPDEST PUSH1 0x0 DUP1 PUSH1 0x40 DUP4 DUP6 SUB SLT ISZERO PUSH2 0x757 JUMPI PUSH2 0x756 PUSH2 0xA4C JUMP JUMPDEST JUMPDEST PUSH1 0x0 PUSH2 0x765 DUP6 DUP3 DUP7 ADD PUSH2 0x6D4 JUMP JUMPDEST SWAP3 POP POP PUSH1 0x20 PUSH2 0x776 DUP6 DUP3 DUP7 ADD PUSH2 0x6FE JUMP JUMPDEST SWAP2 POP POP SWAP3 POP SWAP3 SWAP1 POP JUMP JUMPDEST PUSH1 0x0 DUP1 PUSH1 0x40 DUP4 DUP6 SUB SLT ISZERO PUSH2 0x797 JUMPI PUSH2 0x796 PUSH2 0xA4C JUMP JUMPDEST JUMPDEST PUSH1 0x0 PUSH2 0x7A5 DUP6 DUP3 DUP7 ADD PUSH2 0x6BF JUMP JUMPDEST SWAP3 POP POP PUSH1 0x20 PUSH2 0x7B6 DUP6 DUP3 DUP7 ADD PUSH2 0x6E9 JUMP JUMPDEST SWAP2 POP POP SWAP3 POP SWAP3 SWAP1 POP JUMP JUMPDEST PUSH2 0x7C9 DUP2 PUSH2 0x97B JUMP JUMPDEST DUP3 MSTORE POP POP JUMP JUMPDEST PUSH2 0x7D8 DUP2 PUSH2 0x9DC JUMP JUMPDEST DUP3 MSTORE POP POP JUMP JUMPDEST PUSH1 0x0 PUSH2 0x7EB PUSH1 0x29 DUP4 PUSH2 0x8E0 JUMP JUMPDEST SWAP2 POP PUSH2 0x7F6 DUP3 PUSH2 0xA51 JUMP JUMPDEST PUSH1 0x40 DUP3 ADD SWAP1 POP SWAP2 SWAP1 POP JUMP JUMPDEST PUSH1 0x0 PUSH2 0x80E PUSH1 0x15 DUP4 PUSH2 0x8E0 JUMP JUMPDEST SWAP2 POP PUSH2 0x819 DUP3 PUSH2 0xAA0 JUMP JUMPDEST PUSH1 0x20 DUP3 ADD SWAP1 POP SWAP2 SWAP1 POP JUMP JUMPDEST PUSH2 0x82D DUP2 PUSH2 0x9D2 JUMP JUMPDEST DUP3 MSTORE POP POP JUMP JUMPDEST PUSH1 0x0 PUSH1 0x20 DUP3 ADD SWAP1 POP PUSH2 0x848 PUSH1 0x0 DUP4 ADD DUP5 PUSH2 0x7C0 JUMP JUMPDEST SWAP3 SWAP2 POP POP JUMP JUMPDEST PUSH1 0x0 PUSH1 0x60 DUP3 ADD SWAP1 POP PUSH2 0x863 PUSH1 0x0 DUP4 ADD DUP7 PUSH2 0x7C0 JUMP JUMPDEST PUSH2 0x870 PUSH1 0x20 DUP4 ADD DUP6 PUSH2 0x7CF JUMP JUMPDEST PUSH2 0x87D PUSH1 0x40 DUP4 ADD DUP5 PUSH2 0x824 JUMP JUMPDEST SWAP5 SWAP4 POP POP POP POP JUMP JUMPDEST PUSH1 0x0 PUSH1 0x20 DUP3 ADD SWAP1 POP DUP2 DUP2 SUB PUSH1 0x0 DUP4 ADD MSTORE PUSH2 0x89E DUP2 PUSH2 0x7DE JUMP JUMPDEST SWAP1 POP SWAP2 SWAP1 POP JUMP JUMPDEST PUSH1 0x0 PUSH1 0x20 DUP3 ADD SWAP1 POP DUP2 DUP2 SUB PUSH1 0x0 DUP4 ADD MSTORE PUSH2 0x8BE DUP2 PUSH2 0x801 JUMP JUMPDEST SWAP1 POP SWAP2 SWAP1 POP JUMP JUMPDEST PUSH1 0x0 PUSH1 0x20 DUP3 ADD SWAP1 POP PUSH2 0x8DA PUSH1 0x0 DUP4 ADD DUP5 PUSH2 0x824 JUMP JUMPDEST SWAP3 SWAP2 POP POP JUMP JUMPDEST PUSH1 0x0 DUP3 DUP3 MSTORE PUSH1 0x20 DUP3 ADD SWAP1 POP SWAP3 SWAP2 POP POP JUMP JUMPDEST PUSH1 0x0 PUSH2 0x8FC DUP3 PUSH2 0x9D2 JUMP JUMPDEST SWAP2 POP PUSH2 0x907 DUP4 PUSH2 0x9D2 JUMP JUMPDEST SWAP3 POP DUP3 PUSH32 0xFFFFFFFFFFFFFFFFFFFFFFFFFFFFFFFFFFFFFFFFFFFFFFFFFFFFFFFFFFFFFFFF SUB DUP3 GT ISZERO PUSH2 0x93C JUMPI PUSH2 0x93B PUSH2 0x9EE JUMP JUMPDEST JUMPDEST DUP3 DUP3 ADD SWAP1 POP SWAP3 SWAP2 POP POP JUMP JUMPDEST PUSH1 0x0 PUSH2 0x952 DUP3 PUSH2 0x9D2 JUMP JUMPDEST SWAP2 POP PUSH2 0x95D DUP4 PUSH2 0x9D2 JUMP JUMPDEST SWAP3 POP DUP3 DUP3 LT ISZERO PUSH2 0x970 JUMPI PUSH2 0x96F PUSH2 0x9EE JUMP JUMPDEST JUMPDEST DUP3 DUP3 SUB SWAP1 POP SWAP3 SWAP2 POP POP JUMP JUMPDEST PUSH1 0x0 PUSH2 0x986 DUP3 PUSH2 0x9B2 JUMP JUMPDEST SWAP1 POP SWAP2 SWAP1 POP JUMP JUMPDEST PUSH1 0x0 PUSH2 0x998 DUP3 PUSH2 0x9B2 JUMP JUMPDEST SWAP1 POP SWAP2 SWAP1 POP JUMP JUMPDEST PUSH1 0x0 DUP2 SWAP1 POP PUSH2 0x9AD DUP3 PUSH2 0xAC9 JUMP JUMPDEST SWAP2 SWAP1 POP JUMP JUMPDEST PUSH1 0x0 PUSH20 0xFFFFFFFFFFFFFFFFFFFFFFFFFFFFFFFFFFFFFFFF DUP3 AND SWAP1 POP SWAP2 SWAP1 POP JUMP JUMPDEST PUSH1 0x0 DUP2 SWAP1 POP SWAP2 SWAP1 POP JUMP JUMPDEST PUSH1 0x0 PUSH2 0x9E7 DUP3 PUSH2 0x99F JUMP JUMPDEST SWAP1 POP SWAP2 SWAP1 POP JUMP JUMPDEST PUSH32 0x4E487B7100000000000000000000000000000000000000000000000000000000 PUSH1 0x0 MSTORE PUSH1 0x11 PUSH1 0x4 MSTORE PUSH1 0x24 PUSH1 0x0 REVERT JUMPDEST PUSH32 0x4E487B7100000000000000000000000000000000000000000000000000000000 PUSH1 0x0 MSTORE PUSH1 0x21 PUSH1 0x4 MSTORE PUSH1 0x24 PUSH1 0x0 REVERT JUMPDEST PUSH1 0x0 DUP1 REVERT JUMPDEST PUSH32 0x4F6E6C7920617574686F72697A6564207374616B65686F6C646572732063616E PUSH1 0x0 DUP3 ADD MSTORE PUSH32 0x20646F20746869732E0000000000000000000000000000000000000000000000 PUSH1 0x20 DUP3 ADD MSTORE POP JUMP JUMPDEST PUSH32 0x496E73756666696369656E742062616C616E63652E0000000000000000000000 PUSH1 0x0 DUP3 ADD MSTORE POP JUMP JUMPDEST PUSH1 0x4 DUP2 LT PUSH2 0xADA JUMPI PUSH2 0xAD9 PUSH2 0xA1D JUMP JUMPDEST JUMPDEST POP JUMP JUMPDEST PUSH2 0xAE6 DUP2 PUSH2 0x97B JUMP JUMPDEST DUP2 EQ PUSH2 0xAF1 JUMPI PUSH1 0x0 DUP1 REVERT JUMPDEST POP JUMP JUMPDEST PUSH2 0xAFD DUP2 PUSH2 0x98D JUMP JUMPDEST DUP2 EQ PUSH2 0xB08 JUMPI PUSH1 0x0 DUP1 REVERT JUMPDEST POP JUMP JUMPDEST PUSH1 0x4 DUP2 LT PUSH2 0xB18 JUMPI PUSH1 0x0 DUP1 REVERT JUMPDEST POP JUMP JUMPDEST PUSH2 0xB24 DUP2 PUSH2 0x9D2 JUMP JUMPDEST DUP2 EQ PUSH2 0xB2F JUMPI PUSH1 0x0 DUP1 REVERT JUMPDEST POP JUMP INVALID LOG2 PUSH5 0x6970667358 0x22 SLT KECCAK256 CALL MSTORE8 0xD9 SMOD PUSH22 0x68D0C0BA521D376C4F53BCFA5CD1AB35FFBA6E3F24D0 0x2E SDIV 0xAE SWAP6 0xEB PUSH5 0x736F6C6343 STOP ADDMOD SMOD STOP CALLER "
				},
				"gasEstimates": {
					"creation": {
						"codeDepositCost": "584000",
						"executionCost": "83018",
						"totalCost": "667018"
					},
					"external": {
						"addStakeholder(address,uint8)": "56788",
						"deposit()": "infinite",
						"getBalance(address)": "2935",
						"owner()": "2511",
						"sendPayment(address,uint256)": "infinite",
						"stakeholders(address)": "infinite"
					}
				},
				"methodIdentifiers": {
					"addStakeholder(address,uint8)": "4c87645d",
					"deposit()": "d0e30db0",
					"getBalance(address)": "f8b2cb4f",
					"owner()": "8da5cb5b",
					"sendPayment(address,uint256)": "935f4c18",
					"stakeholders(address)": "c07cfca9"
				}
			},
			"storageLayout": {
				"storage": [
					{
						"astId": 3,
						"contract": "PaymentsContract.sol:SupplyChainContract",
						"label": "owner",
						"offset": 0,
						"slot": "0",
						"type": "t_address"
					},
					{
						"astId": 21,
						"contract": "PaymentsContract.sol:SupplyChainContract",
						"label": "stakeholders",
						"offset": 0,
						"slot": "1",
						"type": "t_mapping(t_address,t_struct(Stakeholder)16_storage)"
					}
				],
				"types": {
					"t_address": {
						"encoding": "inplace",
						"label": "address",
						"numberOfBytes": "20"
					},
					"t_enum(Role)8": {
						"encoding": "inplace",
						"label": "enum SupplyChainContract.Role",
						"numberOfBytes": "1"
					},
					"t_mapping(t_address,t_struct(Stakeholder)16_storage)": {
						"encoding": "mapping",
						"key": "t_address",
						"label": "mapping(address => struct SupplyChainContract.Stakeholder)",
						"numberOfBytes": "32",
						"value": "t_struct(Stakeholder)16_storage"
					},
					"t_struct(Stakeholder)16_storage": {
						"encoding": "inplace",
						"label": "struct SupplyChainContract.Stakeholder",
						"members": [
							{
								"astId": 10,
								"contract": "PaymentsContract.sol:SupplyChainContract",
								"label": "stakeholderAddress",
								"offset": 0,
								"slot": "0",
								"type": "t_address"
							},
							{
								"astId": 13,
								"contract": "PaymentsContract.sol:SupplyChainContract",
								"label": "role",
								"offset": 20,
								"slot": "0",
								"type": "t_enum(Role)8"
							},
							{
								"astId": 15,
								"contract": "PaymentsContract.sol:SupplyChainContract",
								"label": "balance",
								"offset": 0,
								"slot": "1",
								"type": "t_uint256"
							}
						],
						"numberOfBytes": "64"
					},
					"t_uint256": {
						"encoding": "inplace",
						"label": "uint256",
						"numberOfBytes": "32"
					}
				}
			},
			"userdoc": {
				"kind": "user",
				"methods": {},
				"version": 1
			}
		}
	}
}