{
	"TrackingContract.sol": {
		"TrackingContract": {
			"abi": [
				{
					"inputs": [],
					"stateMutability": "nonpayable",
					"type": "constructor"
				},
				{
					"inputs": [
						{
							"internalType": "uint256",
							"name": "_productId",
							"type": "uint256"
						}
					],
					"name": "getCurrentLocation",
					"outputs": [
						{
							"internalType": "string",
							"name": "",
							"type": "string"
						}
					],
					"stateMutability": "view",
					"type": "function"
				},
				{
					"inputs": [
						{
							"internalType": "uint256",
							"name": "",
							"type": "uint256"
						},
						{
							"internalType": "uint256",
							"name": "",
							"type": "uint256"
						}
					],
					"name": "goodsLocations",
					"outputs": [
						{
							"internalType": "uint256",
							"name": "timestamp",
							"type": "uint256"
						},
						{
							"internalType": "string",
							"name": "location",
							"type": "string"
						}
					],
					"stateMutability": "view",
					"type": "function"
				},
				{
					"inputs": [],
					"name": "owner",
					"outputs": [
						{
							"internalType": "address",
							"name": "",
							"type": "address"
						}
					],
					"stateMutability": "view",
					"type": "function"
				},
				{
					"inputs": [
						{
							"internalType": "uint256",
							"name": "_productId",
							"type": "uint256"
						},
						{
							"internalType": "string",
							"name": "_location",
							"type": "string"
						}
					],
					"name": "updateLocation",
					"outputs": [],
					"stateMutability": "nonpayable",
					"type": "function"
				}
			],
			"devdoc": {
				"kind": "dev",
				"methods": {},
				"version": 1
			},
			"evm": {
				"assembly": "    /* \"TrackingContract.sol\":60:966  contract TrackingContract {\r... */\n  mstore(0x40, 0x80)\n    /* \"TrackingContract.sol\":281:332  constructor() {\r... */\n  callvalue\n  dup1\n  iszero\n  tag_1\n  jumpi\n  0x00\n  dup1\n  revert\ntag_1:\n  pop\n    /* \"TrackingContract.sol\":314:324  msg.sender */\n  caller\n    /* \"TrackingContract.sol\":306:311  owner */\n  0x00\n  dup1\n    /* \"TrackingContract.sol\":306:324  owner = msg.sender */\n  0x0100\n  exp\n  dup2\n  sload\n  dup2\n  0xffffffffffffffffffffffffffffffffffffffff\n  mul\n  not\n  and\n  swap1\n  dup4\n  0xffffffffffffffffffffffffffffffffffffffff\n  and\n  mul\n  or\n  swap1\n  sstore\n  pop\n    /* \"TrackingContract.sol\":60:966  contract TrackingContract {\r... */\n  dataSize(sub_0)\n  dup1\n  dataOffset(sub_0)\n  0x00\n  codecopy\n  0x00\n  return\nstop\n\nsub_0: assembly {\n        /* \"TrackingContract.sol\":60:966  contract TrackingContract {\r... */\n      mstore(0x40, 0x80)\n      callvalue\n      dup1\n      iszero\n      tag_1\n      jumpi\n      0x00\n      dup1\n      revert\n    tag_1:\n      pop\n      jumpi(tag_2, lt(calldatasize, 0x04))\n      shr(0xe0, calldataload(0x00))\n      dup1\n      0x23bb1835\n      eq\n      tag_3\n      jumpi\n      dup1\n      0x4ec0c9e9\n      eq\n      tag_4\n      jumpi\n      dup1\n      0x8da5cb5b\n      eq\n      tag_5\n      jumpi\n      dup1\n      0xa6b61352\n      eq\n      tag_6\n      jumpi\n    tag_2:\n      0x00\n      dup1\n      revert\n        /* \"TrackingContract.sol\":647:963  function getCurrentLocation(uint256 _productId) public view returns (string memory) {\r... */\n    tag_3:\n      tag_7\n      0x04\n      dup1\n      calldatasize\n      sub\n      dup2\n      add\n      swap1\n      tag_8\n      swap2\n      swap1\n      tag_9\n      jump\t// in\n    tag_8:\n      tag_10\n      jump\t// in\n    tag_7:\n      mload(0x40)\n      tag_11\n      swap2\n      swap1\n      tag_12\n      jump\t// in\n    tag_11:\n      mload(0x40)\n      dup1\n      swap2\n      sub\n      swap1\n      return\n        /* \"TrackingContract.sol\":459:639  function updateLocation(uint256 _productId, string memory _location) public onlyOwner {\r... */\n    tag_4:\n      tag_13\n      0x04\n      dup1\n      calldatasize\n      sub\n      dup2\n      add\n      swap1\n      tag_14\n      swap2\n      swap1\n      tag_15\n      jump\t// in\n    tag_14:\n      tag_16\n      jump\t// in\n    tag_13:\n      stop\n        /* \"TrackingContract.sol\":93:113  address public owner */\n    tag_5:\n      tag_17\n      tag_18\n      jump\t// in\n    tag_17:\n      mload(0x40)\n      tag_19\n      swap2\n      swap1\n      tag_20\n      jump\t// in\n    tag_19:\n      mload(0x40)\n      dup1\n      swap2\n      sub\n      swap1\n      return\n        /* \"TrackingContract.sol\":214:272  mapping(uint256 => LocationUpdate[]) public goodsLocations */\n    tag_6:\n      tag_21\n      0x04\n      dup1\n      calldatasize\n      sub\n      dup2\n      add\n      swap1\n      tag_22\n      swap2\n      swap1\n      tag_23\n      jump\t// in\n    tag_22:\n      tag_24\n      jump\t// in\n    tag_21:\n      mload(0x40)\n      tag_25\n      swap3\n      swap2\n      swap1\n      tag_26\n      jump\t// in\n    tag_25:\n      mload(0x40)\n      dup1\n      swap2\n      sub\n      swap1\n      return\n        /* \"TrackingContract.sol\":647:963  function getCurrentLocation(uint256 _productId) public view returns (string memory) {\r... */\n    tag_10:\n        /* \"TrackingContract.sol\":716:729  string memory */\n      0x60\n        /* \"TrackingContract.sol\":742:767  uint256 latestUpdateIndex */\n      0x00\n        /* \"TrackingContract.sol\":806:807  1 */\n      0x01\n        /* \"TrackingContract.sol\":770:784  goodsLocations */\n      dup1\n        /* \"TrackingContract.sol\":770:796  goodsLocations[_productId] */\n      0x00\n        /* \"TrackingContract.sol\":785:795  _productId */\n      dup6\n        /* \"TrackingContract.sol\":770:796  goodsLocations[_productId] */\n      dup2\n      mstore\n      0x20\n      add\n      swap1\n      dup2\n      mstore\n      0x20\n      add\n      0x00\n      keccak256\n        /* \"TrackingContract.sol\":770:803  goodsLocations[_productId].length */\n      dup1\n      sload\n      swap1\n      pop\n        /* \"TrackingContract.sol\":770:807  goodsLocations[_productId].length - 1 */\n      tag_28\n      swap2\n      swap1\n      tag_29\n      jump\t// in\n    tag_28:\n        /* \"TrackingContract.sol\":742:807  uint256 latestUpdateIndex = goodsLocations[_productId].length - 1 */\n      swap1\n      pop\n        /* \"TrackingContract.sol\":847:848  0 */\n      0x00\n        /* \"TrackingContract.sol\":826:843  latestUpdateIndex */\n      dup2\n        /* \"TrackingContract.sol\":826:848  latestUpdateIndex >= 0 */\n      lt\n      iszero\n        /* \"TrackingContract.sol\":818:883  require(latestUpdateIndex >= 0, \"No location updates available.\") */\n      tag_30\n      jumpi\n      mload(0x40)\n      0x08c379a000000000000000000000000000000000000000000000000000000000\n      dup2\n      mstore\n      0x04\n      add\n      tag_31\n      swap1\n      tag_32\n      jump\t// in\n    tag_31:\n      mload(0x40)\n      dup1\n      swap2\n      sub\n      swap1\n      revert\n    tag_30:\n        /* \"TrackingContract.sol\":901:915  goodsLocations */\n      0x01\n        /* \"TrackingContract.sol\":901:927  goodsLocations[_productId] */\n      0x00\n        /* \"TrackingContract.sol\":916:926  _productId */\n      dup5\n        /* \"TrackingContract.sol\":901:927  goodsLocations[_productId] */\n      dup2\n      mstore\n      0x20\n      add\n      swap1\n      dup2\n      mstore\n      0x20\n      add\n      0x00\n      keccak256\n        /* \"TrackingContract.sol\":928:945  latestUpdateIndex */\n      dup2\n        /* \"TrackingContract.sol\":901:946  goodsLocations[_productId][latestUpdateIndex] */\n      dup2\n      sload\n      dup2\n      lt\n      tag_33\n      jumpi\n      tag_34\n      tag_35\n      jump\t// in\n    tag_34:\n    tag_33:\n      swap1\n      0x00\n      mstore\n      keccak256(0x00, 0x20)\n      swap1\n      0x02\n      mul\n      add\n        /* \"TrackingContract.sol\":901:955  goodsLocations[_productId][latestUpdateIndex].location */\n      0x01\n      add\n        /* \"TrackingContract.sol\":894:955  return goodsLocations[_productId][latestUpdateIndex].location */\n      dup1\n      sload\n      tag_37\n      swap1\n      tag_38\n      jump\t// in\n    tag_37:\n      dup1\n      0x1f\n      add\n      0x20\n      dup1\n      swap2\n      div\n      mul\n      0x20\n      add\n      mload(0x40)\n      swap1\n      dup2\n      add\n      0x40\n      mstore\n      dup1\n      swap3\n      swap2\n      swap1\n      dup2\n      dup2\n      mstore\n      0x20\n      add\n      dup3\n      dup1\n      sload\n      tag_39\n      swap1\n      tag_38\n      jump\t// in\n    tag_39:\n      dup1\n      iszero\n      tag_40\n      jumpi\n      dup1\n      0x1f\n      lt\n      tag_41\n      jumpi\n      0x0100\n      dup1\n      dup4\n      sload\n      div\n      mul\n      dup4\n      mstore\n      swap2\n      0x20\n      add\n      swap2\n      jump(tag_40)\n    tag_41:\n      dup3\n      add\n      swap2\n      swap1\n      0x00\n      mstore\n      keccak256(0x00, 0x20)\n      swap1\n    tag_42:\n      dup2\n      sload\n      dup2\n      mstore\n      swap1\n      0x01\n      add\n      swap1\n      0x20\n      add\n      dup1\n      dup4\n      gt\n      tag_42\n      jumpi\n      dup3\n      swap1\n      sub\n      0x1f\n      and\n      dup3\n      add\n      swap2\n    tag_40:\n      pop\n      pop\n      pop\n      pop\n      pop\n      swap2\n      pop\n      pop\n        /* \"TrackingContract.sol\":647:963  function getCurrentLocation(uint256 _productId) public view returns (string memory) {\r... */\n      swap2\n      swap1\n      pop\n      jump\t// out\n        /* \"TrackingContract.sol\":459:639  function updateLocation(uint256 _productId, string memory _location) public onlyOwner {\r... */\n    tag_16:\n        /* \"TrackingContract.sol\":394:399  owner */\n      0x00\n      dup1\n      sload\n      swap1\n      0x0100\n      exp\n      swap1\n      div\n      0xffffffffffffffffffffffffffffffffffffffff\n      and\n        /* \"TrackingContract.sol\":380:399  msg.sender == owner */\n      0xffffffffffffffffffffffffffffffffffffffff\n      and\n        /* \"TrackingContract.sol\":380:390  msg.sender */\n      caller\n        /* \"TrackingContract.sol\":380:399  msg.sender == owner */\n      0xffffffffffffffffffffffffffffffffffffffff\n      and\n      eq\n        /* \"TrackingContract.sol\":372:431  require(msg.sender == owner, \"Only the owner can do this.\") */\n      tag_44\n      jumpi\n      mload(0x40)\n      0x08c379a000000000000000000000000000000000000000000000000000000000\n      dup2\n      mstore\n      0x04\n      add\n      tag_45\n      swap1\n      tag_46\n      jump\t// in\n    tag_45:\n      mload(0x40)\n      dup1\n      swap2\n      sub\n      swap1\n      revert\n    tag_44:\n        /* \"TrackingContract.sol\":556:570  goodsLocations */\n      0x01\n        /* \"TrackingContract.sol\":556:582  goodsLocations[_productId] */\n      0x00\n        /* \"TrackingContract.sol\":571:581  _productId */\n      dup4\n        /* \"TrackingContract.sol\":556:582  goodsLocations[_productId] */\n      dup2\n      mstore\n      0x20\n      add\n      swap1\n      dup2\n      mstore\n      0x20\n      add\n      0x00\n      keccak256\n        /* \"TrackingContract.sol\":588:630  LocationUpdate(block.timestamp, _location) */\n      mload(0x40)\n      dup1\n      0x40\n      add\n      0x40\n      mstore\n      dup1\n        /* \"TrackingContract.sol\":603:618  block.timestamp */\n      timestamp\n        /* \"TrackingContract.sol\":588:630  LocationUpdate(block.timestamp, _location) */\n      dup2\n      mstore\n      0x20\n      add\n        /* \"TrackingContract.sol\":620:629  _location */\n      dup4\n        /* \"TrackingContract.sol\":588:630  LocationUpdate(block.timestamp, _location) */\n      dup2\n      mstore\n      pop\n        /* \"TrackingContract.sol\":556:631  goodsLocations[_productId].push(LocationUpdate(block.timestamp, _location)) */\n      swap1\n      dup1\n      0x01\n      dup2\n      sload\n      add\n      dup1\n      dup3\n      sstore\n      dup1\n      swap2\n      pop\n      pop\n      0x01\n      swap1\n      sub\n      swap1\n      0x00\n      mstore\n      keccak256(0x00, 0x20)\n      swap1\n      0x02\n      mul\n      add\n      0x00\n      swap1\n      swap2\n      swap1\n      swap2\n      swap1\n      swap2\n      pop\n      0x00\n      dup3\n      add\n      mload\n      dup2\n      0x00\n      add\n      sstore\n      0x20\n      dup3\n      add\n      mload\n      dup2\n      0x01\n      add\n      swap1\n      dup1\n      mload\n      swap1\n      0x20\n      add\n      swap1\n      tag_49\n      swap3\n      swap2\n      swap1\n      tag_50\n      jump\t// in\n    tag_49:\n      pop\n      pop\n      pop\n        /* \"TrackingContract.sol\":459:639  function updateLocation(uint256 _productId, string memory _location) public onlyOwner {\r... */\n      pop\n      pop\n      jump\t// out\n        /* \"TrackingContract.sol\":93:113  address public owner */\n    tag_18:\n      0x00\n      dup1\n      sload\n      swap1\n      0x0100\n      exp\n      swap1\n      div\n      0xffffffffffffffffffffffffffffffffffffffff\n      and\n      dup2\n      jump\t// out\n        /* \"TrackingContract.sol\":214:272  mapping(uint256 => LocationUpdate[]) public goodsLocations */\n    tag_24:\n      mstore(0x20, 0x01)\n      dup2\n      0x00\n      mstore\n      keccak256(0x00, 0x40)\n      dup2\n      dup2\n      sload\n      dup2\n      lt\n      tag_51\n      jumpi\n      0x00\n      dup1\n      revert\n    tag_51:\n      swap1\n      0x00\n      mstore\n      keccak256(0x00, 0x20)\n      swap1\n      0x02\n      mul\n      add\n      0x00\n      swap2\n      pop\n      swap2\n      pop\n      pop\n      dup1\n      0x00\n      add\n      sload\n      swap1\n      dup1\n      0x01\n      add\n      dup1\n      sload\n      tag_53\n      swap1\n      tag_38\n      jump\t// in\n    tag_53:\n      dup1\n      0x1f\n      add\n      0x20\n      dup1\n      swap2\n      div\n      mul\n      0x20\n      add\n      mload(0x40)\n      swap1\n      dup2\n      add\n      0x40\n      mstore\n      dup1\n      swap3\n      swap2\n      swap1\n      dup2\n      dup2\n      mstore\n      0x20\n      add\n      dup3\n      dup1\n      sload\n      tag_54\n      swap1\n      tag_38\n      jump\t// in\n    tag_54:\n      dup1\n      iszero\n      tag_55\n      jumpi\n      dup1\n      0x1f\n      lt\n      tag_56\n      jumpi\n      0x0100\n      dup1\n      dup4\n      sload\n      div\n      mul\n      dup4\n      mstore\n      swap2\n      0x20\n      add\n      swap2\n      jump(tag_55)\n    tag_56:\n      dup3\n      add\n      swap2\n      swap1\n      0x00\n      mstore\n      keccak256(0x00, 0x20)\n      swap1\n    tag_57:\n      dup2\n      sload\n      dup2\n      mstore\n      swap1\n      0x01\n      add\n      swap1\n      0x20\n      add\n      dup1\n      dup4\n      gt\n      tag_57\n      jumpi\n      dup3\n      swap1\n      sub\n      0x1f\n      and\n      dup3\n      add\n      swap2\n    tag_55:\n      pop\n      pop\n      pop\n      pop\n      pop\n      swap1\n      pop\n      dup3\n      jump\t// out\n    tag_50:\n      dup3\n      dup1\n      sload\n      tag_58\n      swap1\n      tag_38\n      jump\t// in\n    tag_58:\n      swap1\n      0x00\n      mstore\n      keccak256(0x00, 0x20)\n      swap1\n      0x1f\n      add\n      0x20\n      swap1\n      div\n      dup2\n      add\n      swap3\n      dup3\n      tag_60\n      jumpi\n      0x00\n      dup6\n      sstore\n      jump(tag_59)\n    tag_60:\n      dup3\n      0x1f\n      lt\n      tag_61\n      jumpi\n      dup1\n      mload\n      not(0xff)\n      and\n      dup4\n      dup1\n      add\n      or\n      dup6\n      sstore\n      jump(tag_59)\n    tag_61:\n      dup3\n      dup1\n      add\n      0x01\n      add\n      dup6\n      sstore\n      dup3\n      iszero\n      tag_59\n      jumpi\n      swap2\n      dup3\n      add\n    tag_62:\n      dup3\n      dup2\n      gt\n      iszero\n      tag_63\n      jumpi\n      dup3\n      mload\n      dup3\n      sstore\n      swap2\n      0x20\n      add\n      swap2\n      swap1\n      0x01\n      add\n      swap1\n      jump(tag_62)\n    tag_63:\n    tag_59:\n      pop\n      swap1\n      pop\n      tag_64\n      swap2\n      swap1\n      tag_65\n      jump\t// in\n    tag_64:\n      pop\n      swap1\n      jump\t// out\n    tag_65:\n    tag_66:\n      dup1\n      dup3\n      gt\n      iszero\n      tag_67\n      jumpi\n      0x00\n      dup2\n      0x00\n      swap1\n      sstore\n      pop\n      0x01\n      add\n      jump(tag_66)\n    tag_67:\n      pop\n      swap1\n      jump\t// out\n        /* \"#utility.yul\":7:419   */\n    tag_69:\n        /* \"#utility.yul\":85:90   */\n      0x00\n        /* \"#utility.yul\":110:176   */\n      tag_71\n        /* \"#utility.yul\":126:175   */\n      tag_72\n        /* \"#utility.yul\":168:174   */\n      dup5\n        /* \"#utility.yul\":126:175   */\n      tag_73\n      jump\t// in\n    tag_72:\n        /* \"#utility.yul\":110:176   */\n      tag_74\n      jump\t// in\n    tag_71:\n        /* \"#utility.yul\":101:176   */\n      swap1\n      pop\n        /* \"#utility.yul\":199:205   */\n      dup3\n        /* \"#utility.yul\":192:197   */\n      dup2\n        /* \"#utility.yul\":185:206   */\n      mstore\n        /* \"#utility.yul\":237:241   */\n      0x20\n        /* \"#utility.yul\":230:235   */\n      dup2\n        /* \"#utility.yul\":226:242   */\n      add\n        /* \"#utility.yul\":275:278   */\n      dup5\n        /* \"#utility.yul\":266:272   */\n      dup5\n        /* \"#utility.yul\":261:264   */\n      dup5\n        /* \"#utility.yul\":257:273   */\n      add\n        /* \"#utility.yul\":254:279   */\n      gt\n        /* \"#utility.yul\":251:363   */\n      iszero\n      tag_75\n      jumpi\n        /* \"#utility.yul\":282:361   */\n      tag_76\n      tag_77\n      jump\t// in\n    tag_76:\n        /* \"#utility.yul\":251:363   */\n    tag_75:\n        /* \"#utility.yul\":372:413   */\n      tag_78\n        /* \"#utility.yul\":406:412   */\n      dup5\n        /* \"#utility.yul\":401:404   */\n      dup3\n        /* \"#utility.yul\":396:399   */\n      dup6\n        /* \"#utility.yul\":372:413   */\n      tag_79\n      jump\t// in\n    tag_78:\n        /* \"#utility.yul\":91:419   */\n      pop\n        /* \"#utility.yul\":7:419   */\n      swap4\n      swap3\n      pop\n      pop\n      pop\n      jump\t// out\n        /* \"#utility.yul\":439:779   */\n    tag_80:\n        /* \"#utility.yul\":495:500   */\n      0x00\n        /* \"#utility.yul\":544:547   */\n      dup3\n        /* \"#utility.yul\":537:541   */\n      0x1f\n        /* \"#utility.yul\":529:535   */\n      dup4\n        /* \"#utility.yul\":525:542   */\n      add\n        /* \"#utility.yul\":521:548   */\n      slt\n        /* \"#utility.yul\":511:633   */\n      tag_82\n      jumpi\n        /* \"#utility.yul\":552:631   */\n      tag_83\n      tag_84\n      jump\t// in\n    tag_83:\n        /* \"#utility.yul\":511:633   */\n    tag_82:\n        /* \"#utility.yul\":669:675   */\n      dup2\n        /* \"#utility.yul\":656:676   */\n      calldataload\n        /* \"#utility.yul\":694:773   */\n      tag_85\n        /* \"#utility.yul\":769:772   */\n      dup5\n        /* \"#utility.yul\":761:767   */\n      dup3\n        /* \"#utility.yul\":754:758   */\n      0x20\n        /* \"#utility.yul\":746:752   */\n      dup7\n        /* \"#utility.yul\":742:759   */\n      add\n        /* \"#utility.yul\":694:773   */\n      tag_69\n      jump\t// in\n    tag_85:\n        /* \"#utility.yul\":685:773   */\n      swap2\n      pop\n        /* \"#utility.yul\":501:779   */\n      pop\n        /* \"#utility.yul\":439:779   */\n      swap3\n      swap2\n      pop\n      pop\n      jump\t// out\n        /* \"#utility.yul\":785:924   */\n    tag_86:\n        /* \"#utility.yul\":831:836   */\n      0x00\n        /* \"#utility.yul\":869:875   */\n      dup2\n        /* \"#utility.yul\":856:876   */\n      calldataload\n        /* \"#utility.yul\":847:876   */\n      swap1\n      pop\n        /* \"#utility.yul\":885:918   */\n      tag_88\n        /* \"#utility.yul\":912:917   */\n      dup2\n        /* \"#utility.yul\":885:918   */\n      tag_89\n      jump\t// in\n    tag_88:\n        /* \"#utility.yul\":785:924   */\n      swap3\n      swap2\n      pop\n      pop\n      jump\t// out\n        /* \"#utility.yul\":930:1259   */\n    tag_9:\n        /* \"#utility.yul\":989:995   */\n      0x00\n        /* \"#utility.yul\":1038:1040   */\n      0x20\n        /* \"#utility.yul\":1026:1035   */\n      dup3\n        /* \"#utility.yul\":1017:1024   */\n      dup5\n        /* \"#utility.yul\":1013:1036   */\n      sub\n        /* \"#utility.yul\":1009:1041   */\n      slt\n        /* \"#utility.yul\":1006:1125   */\n      iszero\n      tag_91\n      jumpi\n        /* \"#utility.yul\":1044:1123   */\n      tag_92\n      tag_93\n      jump\t// in\n    tag_92:\n        /* \"#utility.yul\":1006:1125   */\n    tag_91:\n        /* \"#utility.yul\":1164:1165   */\n      0x00\n        /* \"#utility.yul\":1189:1242   */\n      tag_94\n        /* \"#utility.yul\":1234:1241   */\n      dup5\n        /* \"#utility.yul\":1225:1231   */\n      dup3\n        /* \"#utility.yul\":1214:1223   */\n      dup6\n        /* \"#utility.yul\":1210:1232   */\n      add\n        /* \"#utility.yul\":1189:1242   */\n      tag_86\n      jump\t// in\n    tag_94:\n        /* \"#utility.yul\":1179:1242   */\n      swap2\n      pop\n        /* \"#utility.yul\":1135:1252   */\n      pop\n        /* \"#utility.yul\":930:1259   */\n      swap3\n      swap2\n      pop\n      pop\n      jump\t// out\n        /* \"#utility.yul\":1265:1919   */\n    tag_15:\n        /* \"#utility.yul\":1343:1349   */\n      0x00\n        /* \"#utility.yul\":1351:1357   */\n      dup1\n        /* \"#utility.yul\":1400:1402   */\n      0x40\n        /* \"#utility.yul\":1388:1397   */\n      dup4\n        /* \"#utility.yul\":1379:1386   */\n      dup6\n        /* \"#utility.yul\":1375:1398   */\n      sub\n        /* \"#utility.yul\":1371:1403   */\n      slt\n        /* \"#utility.yul\":1368:1487   */\n      iszero\n      tag_96\n      jumpi\n        /* \"#utility.yul\":1406:1485   */\n      tag_97\n      tag_93\n      jump\t// in\n    tag_97:\n        /* \"#utility.yul\":1368:1487   */\n    tag_96:\n        /* \"#utility.yul\":1526:1527   */\n      0x00\n        /* \"#utility.yul\":1551:1604   */\n      tag_98\n        /* \"#utility.yul\":1596:1603   */\n      dup6\n        /* \"#utility.yul\":1587:1593   */\n      dup3\n        /* \"#utility.yul\":1576:1585   */\n      dup7\n        /* \"#utility.yul\":1572:1594   */\n      add\n        /* \"#utility.yul\":1551:1604   */\n      tag_86\n      jump\t// in\n    tag_98:\n        /* \"#utility.yul\":1541:1604   */\n      swap3\n      pop\n        /* \"#utility.yul\":1497:1614   */\n      pop\n        /* \"#utility.yul\":1681:1683   */\n      0x20\n        /* \"#utility.yul\":1670:1679   */\n      dup4\n        /* \"#utility.yul\":1666:1684   */\n      add\n        /* \"#utility.yul\":1653:1685   */\n      calldataload\n        /* \"#utility.yul\":1712:1730   */\n      0xffffffffffffffff\n        /* \"#utility.yul\":1704:1710   */\n      dup2\n        /* \"#utility.yul\":1701:1731   */\n      gt\n        /* \"#utility.yul\":1698:1815   */\n      iszero\n      tag_99\n      jumpi\n        /* \"#utility.yul\":1734:1813   */\n      tag_100\n      tag_101\n      jump\t// in\n    tag_100:\n        /* \"#utility.yul\":1698:1815   */\n    tag_99:\n        /* \"#utility.yul\":1839:1902   */\n      tag_102\n        /* \"#utility.yul\":1894:1901   */\n      dup6\n        /* \"#utility.yul\":1885:1891   */\n      dup3\n        /* \"#utility.yul\":1874:1883   */\n      dup7\n        /* \"#utility.yul\":1870:1892   */\n      add\n        /* \"#utility.yul\":1839:1902   */\n      tag_80\n      jump\t// in\n    tag_102:\n        /* \"#utility.yul\":1829:1902   */\n      swap2\n      pop\n        /* \"#utility.yul\":1624:1912   */\n      pop\n        /* \"#utility.yul\":1265:1919   */\n      swap3\n      pop\n      swap3\n      swap1\n      pop\n      jump\t// out\n        /* \"#utility.yul\":1925:2399   */\n    tag_23:\n        /* \"#utility.yul\":1993:1999   */\n      0x00\n        /* \"#utility.yul\":2001:2007   */\n      dup1\n        /* \"#utility.yul\":2050:2052   */\n      0x40\n        /* \"#utility.yul\":2038:2047   */\n      dup4\n        /* \"#utility.yul\":2029:2036   */\n      dup6\n        /* \"#utility.yul\":2025:2048   */\n      sub\n        /* \"#utility.yul\":2021:2053   */\n      slt\n        /* \"#utility.yul\":2018:2137   */\n      iszero\n      tag_104\n      jumpi\n        /* \"#utility.yul\":2056:2135   */\n      tag_105\n      tag_93\n      jump\t// in\n    tag_105:\n        /* \"#utility.yul\":2018:2137   */\n    tag_104:\n        /* \"#utility.yul\":2176:2177   */\n      0x00\n        /* \"#utility.yul\":2201:2254   */\n      tag_106\n        /* \"#utility.yul\":2246:2253   */\n      dup6\n        /* \"#utility.yul\":2237:2243   */\n      dup3\n        /* \"#utility.yul\":2226:2235   */\n      dup7\n        /* \"#utility.yul\":2222:2244   */\n      add\n        /* \"#utility.yul\":2201:2254   */\n      tag_86\n      jump\t// in\n    tag_106:\n        /* \"#utility.yul\":2191:2254   */\n      swap3\n      pop\n        /* \"#utility.yul\":2147:2264   */\n      pop\n        /* \"#utility.yul\":2303:2305   */\n      0x20\n        /* \"#utility.yul\":2329:2382   */\n      tag_107\n        /* \"#utility.yul\":2374:2381   */\n      dup6\n        /* \"#utility.yul\":2365:2371   */\n      dup3\n        /* \"#utility.yul\":2354:2363   */\n      dup7\n        /* \"#utility.yul\":2350:2372   */\n      add\n        /* \"#utility.yul\":2329:2382   */\n      tag_86\n      jump\t// in\n    tag_107:\n        /* \"#utility.yul\":2319:2382   */\n      swap2\n      pop\n        /* \"#utility.yul\":2274:2392   */\n      pop\n        /* \"#utility.yul\":1925:2399   */\n      swap3\n      pop\n      swap3\n      swap1\n      pop\n      jump\t// out\n        /* \"#utility.yul\":2405:2523   */\n    tag_108:\n        /* \"#utility.yul\":2492:2516   */\n      tag_110\n        /* \"#utility.yul\":2510:2515   */\n      dup2\n        /* \"#utility.yul\":2492:2516   */\n      tag_111\n      jump\t// in\n    tag_110:\n        /* \"#utility.yul\":2487:2490   */\n      dup3\n        /* \"#utility.yul\":2480:2517   */\n      mstore\n        /* \"#utility.yul\":2405:2523   */\n      pop\n      pop\n      jump\t// out\n        /* \"#utility.yul\":2529:2893   */\n    tag_112:\n        /* \"#utility.yul\":2617:2620   */\n      0x00\n        /* \"#utility.yul\":2645:2684   */\n      tag_114\n        /* \"#utility.yul\":2678:2683   */\n      dup3\n        /* \"#utility.yul\":2645:2684   */\n      tag_115\n      jump\t// in\n    tag_114:\n        /* \"#utility.yul\":2700:2771   */\n      tag_116\n        /* \"#utility.yul\":2764:2770   */\n      dup2\n        /* \"#utility.yul\":2759:2762   */\n      dup6\n        /* \"#utility.yul\":2700:2771   */\n      tag_117\n      jump\t// in\n    tag_116:\n        /* \"#utility.yul\":2693:2771   */\n      swap4\n      pop\n        /* \"#utility.yul\":2780:2832   */\n      tag_118\n        /* \"#utility.yul\":2825:2831   */\n      dup2\n        /* \"#utility.yul\":2820:2823   */\n      dup6\n        /* \"#utility.yul\":2813:2817   */\n      0x20\n        /* \"#utility.yul\":2806:2811   */\n      dup7\n        /* \"#utility.yul\":2802:2818   */\n      add\n        /* \"#utility.yul\":2780:2832   */\n      tag_119\n      jump\t// in\n    tag_118:\n        /* \"#utility.yul\":2857:2886   */\n      tag_120\n        /* \"#utility.yul\":2879:2885   */\n      dup2\n        /* \"#utility.yul\":2857:2886   */\n      tag_121\n      jump\t// in\n    tag_120:\n        /* \"#utility.yul\":2852:2855   */\n      dup5\n        /* \"#utility.yul\":2848:2887   */\n      add\n        /* \"#utility.yul\":2841:2887   */\n      swap2\n      pop\n        /* \"#utility.yul\":2621:2893   */\n      pop\n        /* \"#utility.yul\":2529:2893   */\n      swap3\n      swap2\n      pop\n      pop\n      jump\t// out\n        /* \"#utility.yul\":2899:3265   */\n    tag_122:\n        /* \"#utility.yul\":3041:3044   */\n      0x00\n        /* \"#utility.yul\":3062:3129   */\n      tag_124\n        /* \"#utility.yul\":3126:3128   */\n      0x1b\n        /* \"#utility.yul\":3121:3124   */\n      dup4\n        /* \"#utility.yul\":3062:3129   */\n      tag_117\n      jump\t// in\n    tag_124:\n        /* \"#utility.yul\":3055:3129   */\n      swap2\n      pop\n        /* \"#utility.yul\":3138:3231   */\n      tag_125\n        /* \"#utility.yul\":3227:3230   */\n      dup3\n        /* \"#utility.yul\":3138:3231   */\n      tag_126\n      jump\t// in\n    tag_125:\n        /* \"#utility.yul\":3256:3258   */\n      0x20\n        /* \"#utility.yul\":3251:3254   */\n      dup3\n        /* \"#utility.yul\":3247:3259   */\n      add\n        /* \"#utility.yul\":3240:3259   */\n      swap1\n      pop\n        /* \"#utility.yul\":2899:3265   */\n      swap2\n      swap1\n      pop\n      jump\t// out\n        /* \"#utility.yul\":3271:3637   */\n    tag_127:\n        /* \"#utility.yul\":3413:3416   */\n      0x00\n        /* \"#utility.yul\":3434:3501   */\n      tag_129\n        /* \"#utility.yul\":3498:3500   */\n      0x1e\n        /* \"#utility.yul\":3493:3496   */\n      dup4\n        /* \"#utility.yul\":3434:3501   */\n      tag_117\n      jump\t// in\n    tag_129:\n        /* \"#utility.yul\":3427:3501   */\n      swap2\n      pop\n        /* \"#utility.yul\":3510:3603   */\n      tag_130\n        /* \"#utility.yul\":3599:3602   */\n      dup3\n        /* \"#utility.yul\":3510:3603   */\n      tag_131\n      jump\t// in\n    tag_130:\n        /* \"#utility.yul\":3628:3630   */\n      0x20\n        /* \"#utility.yul\":3623:3626   */\n      dup3\n        /* \"#utility.yul\":3619:3631   */\n      add\n        /* \"#utility.yul\":3612:3631   */\n      swap1\n      pop\n        /* \"#utility.yul\":3271:3637   */\n      swap2\n      swap1\n      pop\n      jump\t// out\n        /* \"#utility.yul\":3643:3761   */\n    tag_132:\n        /* \"#utility.yul\":3730:3754   */\n      tag_134\n        /* \"#utility.yul\":3748:3753   */\n      dup2\n        /* \"#utility.yul\":3730:3754   */\n      tag_135\n      jump\t// in\n    tag_134:\n        /* \"#utility.yul\":3725:3728   */\n      dup3\n        /* \"#utility.yul\":3718:3755   */\n      mstore\n        /* \"#utility.yul\":3643:3761   */\n      pop\n      pop\n      jump\t// out\n        /* \"#utility.yul\":3767:3989   */\n    tag_20:\n        /* \"#utility.yul\":3860:3864   */\n      0x00\n        /* \"#utility.yul\":3898:3900   */\n      0x20\n        /* \"#utility.yul\":3887:3896   */\n      dup3\n        /* \"#utility.yul\":3883:3901   */\n      add\n        /* \"#utility.yul\":3875:3901   */\n      swap1\n      pop\n        /* \"#utility.yul\":3911:3982   */\n      tag_137\n        /* \"#utility.yul\":3979:3980   */\n      0x00\n        /* \"#utility.yul\":3968:3977   */\n      dup4\n        /* \"#utility.yul\":3964:3981   */\n      add\n        /* \"#utility.yul\":3955:3961   */\n      dup5\n        /* \"#utility.yul\":3911:3982   */\n      tag_108\n      jump\t// in\n    tag_137:\n        /* \"#utility.yul\":3767:3989   */\n      swap3\n      swap2\n      pop\n      pop\n      jump\t// out\n        /* \"#utility.yul\":3995:4308   */\n    tag_12:\n        /* \"#utility.yul\":4108:4112   */\n      0x00\n        /* \"#utility.yul\":4146:4148   */\n      0x20\n        /* \"#utility.yul\":4135:4144   */\n      dup3\n        /* \"#utility.yul\":4131:4149   */\n      add\n        /* \"#utility.yul\":4123:4149   */\n      swap1\n      pop\n        /* \"#utility.yul\":4195:4204   */\n      dup2\n        /* \"#utility.yul\":4189:4193   */\n      dup2\n        /* \"#utility.yul\":4185:4205   */\n      sub\n        /* \"#utility.yul\":4181:4182   */\n      0x00\n        /* \"#utility.yul\":4170:4179   */\n      dup4\n        /* \"#utility.yul\":4166:4183   */\n      add\n        /* \"#utility.yul\":4159:4206   */\n      mstore\n        /* \"#utility.yul\":4223:4301   */\n      tag_139\n        /* \"#utility.yul\":4296:4300   */\n      dup2\n        /* \"#utility.yul\":4287:4293   */\n      dup5\n        /* \"#utility.yul\":4223:4301   */\n      tag_112\n      jump\t// in\n    tag_139:\n        /* \"#utility.yul\":4215:4301   */\n      swap1\n      pop\n        /* \"#utility.yul\":3995:4308   */\n      swap3\n      swap2\n      pop\n      pop\n      jump\t// out\n        /* \"#utility.yul\":4314:4733   */\n    tag_46:\n        /* \"#utility.yul\":4480:4484   */\n      0x00\n        /* \"#utility.yul\":4518:4520   */\n      0x20\n        /* \"#utility.yul\":4507:4516   */\n      dup3\n        /* \"#utility.yul\":4503:4521   */\n      add\n        /* \"#utility.yul\":4495:4521   */\n      swap1\n      pop\n        /* \"#utility.yul\":4567:4576   */\n      dup2\n        /* \"#utility.yul\":4561:4565   */\n      dup2\n        /* \"#utility.yul\":4557:4577   */\n      sub\n        /* \"#utility.yul\":4553:4554   */\n      0x00\n        /* \"#utility.yul\":4542:4551   */\n      dup4\n        /* \"#utility.yul\":4538:4555   */\n      add\n        /* \"#utility.yul\":4531:4578   */\n      mstore\n        /* \"#utility.yul\":4595:4726   */\n      tag_141\n        /* \"#utility.yul\":4721:4725   */\n      dup2\n        /* \"#utility.yul\":4595:4726   */\n      tag_122\n      jump\t// in\n    tag_141:\n        /* \"#utility.yul\":4587:4726   */\n      swap1\n      pop\n        /* \"#utility.yul\":4314:4733   */\n      swap2\n      swap1\n      pop\n      jump\t// out\n        /* \"#utility.yul\":4739:5158   */\n    tag_32:\n        /* \"#utility.yul\":4905:4909   */\n      0x00\n        /* \"#utility.yul\":4943:4945   */\n      0x20\n        /* \"#utility.yul\":4932:4941   */\n      dup3\n        /* \"#utility.yul\":4928:4946   */\n      add\n        /* \"#utility.yul\":4920:4946   */\n      swap1\n      pop\n        /* \"#utility.yul\":4992:5001   */\n      dup2\n        /* \"#utility.yul\":4986:4990   */\n      dup2\n        /* \"#utility.yul\":4982:5002   */\n      sub\n        /* \"#utility.yul\":4978:4979   */\n      0x00\n        /* \"#utility.yul\":4967:4976   */\n      dup4\n        /* \"#utility.yul\":4963:4980   */\n      add\n        /* \"#utility.yul\":4956:5003   */\n      mstore\n        /* \"#utility.yul\":5020:5151   */\n      tag_143\n        /* \"#utility.yul\":5146:5150   */\n      dup2\n        /* \"#utility.yul\":5020:5151   */\n      tag_127\n      jump\t// in\n    tag_143:\n        /* \"#utility.yul\":5012:5151   */\n      swap1\n      pop\n        /* \"#utility.yul\":4739:5158   */\n      swap2\n      swap1\n      pop\n      jump\t// out\n        /* \"#utility.yul\":5164:5587   */\n    tag_26:\n        /* \"#utility.yul\":5305:5309   */\n      0x00\n        /* \"#utility.yul\":5343:5345   */\n      0x40\n        /* \"#utility.yul\":5332:5341   */\n      dup3\n        /* \"#utility.yul\":5328:5346   */\n      add\n        /* \"#utility.yul\":5320:5346   */\n      swap1\n      pop\n        /* \"#utility.yul\":5356:5427   */\n      tag_145\n        /* \"#utility.yul\":5424:5425   */\n      0x00\n        /* \"#utility.yul\":5413:5422   */\n      dup4\n        /* \"#utility.yul\":5409:5426   */\n      add\n        /* \"#utility.yul\":5400:5406   */\n      dup6\n        /* \"#utility.yul\":5356:5427   */\n      tag_132\n      jump\t// in\n    tag_145:\n        /* \"#utility.yul\":5474:5483   */\n      dup2\n        /* \"#utility.yul\":5468:5472   */\n      dup2\n        /* \"#utility.yul\":5464:5484   */\n      sub\n        /* \"#utility.yul\":5459:5461   */\n      0x20\n        /* \"#utility.yul\":5448:5457   */\n      dup4\n        /* \"#utility.yul\":5444:5462   */\n      add\n        /* \"#utility.yul\":5437:5485   */\n      mstore\n        /* \"#utility.yul\":5502:5580   */\n      tag_146\n        /* \"#utility.yul\":5575:5579   */\n      dup2\n        /* \"#utility.yul\":5566:5572   */\n      dup5\n        /* \"#utility.yul\":5502:5580   */\n      tag_112\n      jump\t// in\n    tag_146:\n        /* \"#utility.yul\":5494:5580   */\n      swap1\n      pop\n        /* \"#utility.yul\":5164:5587   */\n      swap4\n      swap3\n      pop\n      pop\n      pop\n      jump\t// out\n        /* \"#utility.yul\":5593:5722   */\n    tag_74:\n        /* \"#utility.yul\":5627:5633   */\n      0x00\n        /* \"#utility.yul\":5654:5674   */\n      tag_148\n      tag_149\n      jump\t// in\n    tag_148:\n        /* \"#utility.yul\":5644:5674   */\n      swap1\n      pop\n        /* \"#utility.yul\":5683:5716   */\n      tag_150\n        /* \"#utility.yul\":5711:5715   */\n      dup3\n        /* \"#utility.yul\":5703:5709   */\n      dup3\n        /* \"#utility.yul\":5683:5716   */\n      tag_151\n      jump\t// in\n    tag_150:\n        /* \"#utility.yul\":5593:5722   */\n      swap2\n      swap1\n      pop\n      jump\t// out\n        /* \"#utility.yul\":5728:5803   */\n    tag_149:\n        /* \"#utility.yul\":5761:5767   */\n      0x00\n        /* \"#utility.yul\":5794:5796   */\n      0x40\n        /* \"#utility.yul\":5788:5797   */\n      mload\n        /* \"#utility.yul\":5778:5797   */\n      swap1\n      pop\n        /* \"#utility.yul\":5728:5803   */\n      swap1\n      jump\t// out\n        /* \"#utility.yul\":5809:6117   */\n    tag_73:\n        /* \"#utility.yul\":5871:5875   */\n      0x00\n        /* \"#utility.yul\":5961:5979   */\n      0xffffffffffffffff\n        /* \"#utility.yul\":5953:5959   */\n      dup3\n        /* \"#utility.yul\":5950:5980   */\n      gt\n        /* \"#utility.yul\":5947:6003   */\n      iszero\n      tag_154\n      jumpi\n        /* \"#utility.yul\":5983:6001   */\n      tag_155\n      tag_156\n      jump\t// in\n    tag_155:\n        /* \"#utility.yul\":5947:6003   */\n    tag_154:\n        /* \"#utility.yul\":6021:6050   */\n      tag_157\n        /* \"#utility.yul\":6043:6049   */\n      dup3\n        /* \"#utility.yul\":6021:6050   */\n      tag_121\n      jump\t// in\n    tag_157:\n        /* \"#utility.yul\":6013:6050   */\n      swap1\n      pop\n        /* \"#utility.yul\":6105:6109   */\n      0x20\n        /* \"#utility.yul\":6099:6103   */\n      dup2\n        /* \"#utility.yul\":6095:6110   */\n      add\n        /* \"#utility.yul\":6087:6110   */\n      swap1\n      pop\n        /* \"#utility.yul\":5809:6117   */\n      swap2\n      swap1\n      pop\n      jump\t// out\n        /* \"#utility.yul\":6123:6222   */\n    tag_115:\n        /* \"#utility.yul\":6175:6181   */\n      0x00\n        /* \"#utility.yul\":6209:6214   */\n      dup2\n        /* \"#utility.yul\":6203:6215   */\n      mload\n        /* \"#utility.yul\":6193:6215   */\n      swap1\n      pop\n        /* \"#utility.yul\":6123:6222   */\n      swap2\n      swap1\n      pop\n      jump\t// out\n        /* \"#utility.yul\":6228:6397   */\n    tag_117:\n        /* \"#utility.yul\":6312:6323   */\n      0x00\n        /* \"#utility.yul\":6346:6352   */\n      dup3\n        /* \"#utility.yul\":6341:6344   */\n      dup3\n        /* \"#utility.yul\":6334:6353   */\n      mstore\n        /* \"#utility.yul\":6386:6390   */\n      0x20\n        /* \"#utility.yul\":6381:6384   */\n      dup3\n        /* \"#utility.yul\":6377:6391   */\n      add\n        /* \"#utility.yul\":6362:6391   */\n      swap1\n      pop\n        /* \"#utility.yul\":6228:6397   */\n      swap3\n      swap2\n      pop\n      pop\n      jump\t// out\n        /* \"#utility.yul\":6403:6594   */\n    tag_29:\n        /* \"#utility.yul\":6443:6447   */\n      0x00\n        /* \"#utility.yul\":6463:6483   */\n      tag_161\n        /* \"#utility.yul\":6481:6482   */\n      dup3\n        /* \"#utility.yul\":6463:6483   */\n      tag_135\n      jump\t// in\n    tag_161:\n        /* \"#utility.yul\":6458:6483   */\n      swap2\n      pop\n        /* \"#utility.yul\":6497:6517   */\n      tag_162\n        /* \"#utility.yul\":6515:6516   */\n      dup4\n        /* \"#utility.yul\":6497:6517   */\n      tag_135\n      jump\t// in\n    tag_162:\n        /* \"#utility.yul\":6492:6517   */\n      swap3\n      pop\n        /* \"#utility.yul\":6536:6537   */\n      dup3\n        /* \"#utility.yul\":6533:6534   */\n      dup3\n        /* \"#utility.yul\":6530:6538   */\n      lt\n        /* \"#utility.yul\":6527:6561   */\n      iszero\n      tag_163\n      jumpi\n        /* \"#utility.yul\":6541:6559   */\n      tag_164\n      tag_165\n      jump\t// in\n    tag_164:\n        /* \"#utility.yul\":6527:6561   */\n    tag_163:\n        /* \"#utility.yul\":6586:6587   */\n      dup3\n        /* \"#utility.yul\":6583:6584   */\n      dup3\n        /* \"#utility.yul\":6579:6588   */\n      sub\n        /* \"#utility.yul\":6571:6588   */\n      swap1\n      pop\n        /* \"#utility.yul\":6403:6594   */\n      swap3\n      swap2\n      pop\n      pop\n      jump\t// out\n        /* \"#utility.yul\":6600:6696   */\n    tag_111:\n        /* \"#utility.yul\":6637:6644   */\n      0x00\n        /* \"#utility.yul\":6666:6690   */\n      tag_167\n        /* \"#utility.yul\":6684:6689   */\n      dup3\n        /* \"#utility.yul\":6666:6690   */\n      tag_168\n      jump\t// in\n    tag_167:\n        /* \"#utility.yul\":6655:6690   */\n      swap1\n      pop\n        /* \"#utility.yul\":6600:6696   */\n      swap2\n      swap1\n      pop\n      jump\t// out\n        /* \"#utility.yul\":6702:6828   */\n    tag_168:\n        /* \"#utility.yul\":6739:6746   */\n      0x00\n        /* \"#utility.yul\":6779:6821   */\n      0xffffffffffffffffffffffffffffffffffffffff\n        /* \"#utility.yul\":6772:6777   */\n      dup3\n        /* \"#utility.yul\":6768:6822   */\n      and\n        /* \"#utility.yul\":6757:6822   */\n      swap1\n      pop\n        /* \"#utility.yul\":6702:6828   */\n      swap2\n      swap1\n      pop\n      jump\t// out\n        /* \"#utility.yul\":6834:6911   */\n    tag_135:\n        /* \"#utility.yul\":6871:6878   */\n      0x00\n        /* \"#utility.yul\":6900:6905   */\n      dup2\n        /* \"#utility.yul\":6889:6905   */\n      swap1\n      pop\n        /* \"#utility.yul\":6834:6911   */\n      swap2\n      swap1\n      pop\n      jump\t// out\n        /* \"#utility.yul\":6917:7071   */\n    tag_79:\n        /* \"#utility.yul\":7001:7007   */\n      dup3\n        /* \"#utility.yul\":6996:6999   */\n      dup2\n        /* \"#utility.yul\":6991:6994   */\n      dup4\n        /* \"#utility.yul\":6978:7008   */\n      calldatacopy\n        /* \"#utility.yul\":7063:7064   */\n      0x00\n        /* \"#utility.yul\":7054:7060   */\n      dup4\n        /* \"#utility.yul\":7049:7052   */\n      dup4\n        /* \"#utility.yul\":7045:7061   */\n      add\n        /* \"#utility.yul\":7038:7065   */\n      mstore\n        /* \"#utility.yul\":6917:7071   */\n      pop\n      pop\n      pop\n      jump\t// out\n        /* \"#utility.yul\":7077:7384   */\n    tag_119:\n        /* \"#utility.yul\":7145:7146   */\n      0x00\n        /* \"#utility.yul\":7155:7268   */\n    tag_173:\n        /* \"#utility.yul\":7169:7175   */\n      dup4\n        /* \"#utility.yul\":7166:7167   */\n      dup2\n        /* \"#utility.yul\":7163:7176   */\n      lt\n        /* \"#utility.yul\":7155:7268   */\n      iszero\n      tag_175\n      jumpi\n        /* \"#utility.yul\":7254:7255   */\n      dup1\n        /* \"#utility.yul\":7249:7252   */\n      dup3\n        /* \"#utility.yul\":7245:7256   */\n      add\n        /* \"#utility.yul\":7239:7257   */\n      mload\n        /* \"#utility.yul\":7235:7236   */\n      dup2\n        /* \"#utility.yul\":7230:7233   */\n      dup5\n        /* \"#utility.yul\":7226:7237   */\n      add\n        /* \"#utility.yul\":7219:7258   */\n      mstore\n        /* \"#utility.yul\":7191:7193   */\n      0x20\n        /* \"#utility.yul\":7188:7189   */\n      dup2\n        /* \"#utility.yul\":7184:7194   */\n      add\n        /* \"#utility.yul\":7179:7194   */\n      swap1\n      pop\n        /* \"#utility.yul\":7155:7268   */\n      jump(tag_173)\n    tag_175:\n        /* \"#utility.yul\":7286:7292   */\n      dup4\n        /* \"#utility.yul\":7283:7284   */\n      dup2\n        /* \"#utility.yul\":7280:7293   */\n      gt\n        /* \"#utility.yul\":7277:7378   */\n      iszero\n      tag_176\n      jumpi\n        /* \"#utility.yul\":7366:7367   */\n      0x00\n        /* \"#utility.yul\":7357:7363   */\n      dup5\n        /* \"#utility.yul\":7352:7355   */\n      dup5\n        /* \"#utility.yul\":7348:7364   */\n      add\n        /* \"#utility.yul\":7341:7368   */\n      mstore\n        /* \"#utility.yul\":7277:7378   */\n    tag_176:\n        /* \"#utility.yul\":7126:7384   */\n      pop\n        /* \"#utility.yul\":7077:7384   */\n      pop\n      pop\n      pop\n      jump\t// out\n        /* \"#utility.yul\":7390:7710   */\n    tag_38:\n        /* \"#utility.yul\":7434:7440   */\n      0x00\n        /* \"#utility.yul\":7471:7472   */\n      0x02\n        /* \"#utility.yul\":7465:7469   */\n      dup3\n        /* \"#utility.yul\":7461:7473   */\n      div\n        /* \"#utility.yul\":7451:7473   */\n      swap1\n      pop\n        /* \"#utility.yul\":7518:7519   */\n      0x01\n        /* \"#utility.yul\":7512:7516   */\n      dup3\n        /* \"#utility.yul\":7508:7520   */\n      and\n        /* \"#utility.yul\":7539:7557   */\n      dup1\n        /* \"#utility.yul\":7529:7610   */\n      tag_178\n      jumpi\n        /* \"#utility.yul\":7595:7599   */\n      0x7f\n        /* \"#utility.yul\":7587:7593   */\n      dup3\n        /* \"#utility.yul\":7583:7600   */\n      and\n        /* \"#utility.yul\":7573:7600   */\n      swap2\n      pop\n        /* \"#utility.yul\":7529:7610   */\n    tag_178:\n        /* \"#utility.yul\":7657:7659   */\n      0x20\n        /* \"#utility.yul\":7649:7655   */\n      dup3\n        /* \"#utility.yul\":7646:7660   */\n      lt\n        /* \"#utility.yul\":7626:7644   */\n      dup2\n        /* \"#utility.yul\":7623:7661   */\n      eq\n        /* \"#utility.yul\":7620:7704   */\n      iszero\n      tag_179\n      jumpi\n        /* \"#utility.yul\":7676:7694   */\n      tag_180\n      tag_181\n      jump\t// in\n    tag_180:\n        /* \"#utility.yul\":7620:7704   */\n    tag_179:\n        /* \"#utility.yul\":7441:7710   */\n      pop\n        /* \"#utility.yul\":7390:7710   */\n      swap2\n      swap1\n      pop\n      jump\t// out\n        /* \"#utility.yul\":7716:7997   */\n    tag_151:\n        /* \"#utility.yul\":7799:7826   */\n      tag_183\n        /* \"#utility.yul\":7821:7825   */\n      dup3\n        /* \"#utility.yul\":7799:7826   */\n      tag_121\n      jump\t// in\n    tag_183:\n        /* \"#utility.yul\":7791:7797   */\n      dup2\n        /* \"#utility.yul\":7787:7827   */\n      add\n        /* \"#utility.yul\":7929:7935   */\n      dup2\n        /* \"#utility.yul\":7917:7927   */\n      dup2\n        /* \"#utility.yul\":7914:7936   */\n      lt\n        /* \"#utility.yul\":7893:7911   */\n      0xffffffffffffffff\n        /* \"#utility.yul\":7881:7891   */\n      dup3\n        /* \"#utility.yul\":7878:7912   */\n      gt\n        /* \"#utility.yul\":7875:7937   */\n      or\n        /* \"#utility.yul\":7872:7960   */\n      iszero\n      tag_184\n      jumpi\n        /* \"#utility.yul\":7940:7958   */\n      tag_185\n      tag_156\n      jump\t// in\n    tag_185:\n        /* \"#utility.yul\":7872:7960   */\n    tag_184:\n        /* \"#utility.yul\":7980:7990   */\n      dup1\n        /* \"#utility.yul\":7976:7978   */\n      0x40\n        /* \"#utility.yul\":7969:7991   */\n      mstore\n        /* \"#utility.yul\":7759:7997   */\n      pop\n        /* \"#utility.yul\":7716:7997   */\n      pop\n      pop\n      jump\t// out\n        /* \"#utility.yul\":8003:8183   */\n    tag_165:\n        /* \"#utility.yul\":8051:8128   */\n      0x4e487b7100000000000000000000000000000000000000000000000000000000\n        /* \"#utility.yul\":8048:8049   */\n      0x00\n        /* \"#utility.yul\":8041:8129   */\n      mstore\n        /* \"#utility.yul\":8148:8152   */\n      0x11\n        /* \"#utility.yul\":8145:8146   */\n      0x04\n        /* \"#utility.yul\":8138:8153   */\n      mstore\n        /* \"#utility.yul\":8172:8176   */\n      0x24\n        /* \"#utility.yul\":8169:8170   */\n      0x00\n        /* \"#utility.yul\":8162:8177   */\n      revert\n        /* \"#utility.yul\":8189:8369   */\n    tag_181:\n        /* \"#utility.yul\":8237:8314   */\n      0x4e487b7100000000000000000000000000000000000000000000000000000000\n        /* \"#utility.yul\":8234:8235   */\n      0x00\n        /* \"#utility.yul\":8227:8315   */\n      mstore\n        /* \"#utility.yul\":8334:8338   */\n      0x22\n        /* \"#utility.yul\":8331:8332   */\n      0x04\n        /* \"#utility.yul\":8324:8339   */\n      mstore\n        /* \"#utility.yul\":8358:8362   */\n      0x24\n        /* \"#utility.yul\":8355:8356   */\n      0x00\n        /* \"#utility.yul\":8348:8363   */\n      revert\n        /* \"#utility.yul\":8375:8555   */\n    tag_35:\n        /* \"#utility.yul\":8423:8500   */\n      0x4e487b7100000000000000000000000000000000000000000000000000000000\n        /* \"#utility.yul\":8420:8421   */\n      0x00\n        /* \"#utility.yul\":8413:8501   */\n      mstore\n        /* \"#utility.yul\":8520:8524   */\n      0x32\n        /* \"#utility.yul\":8517:8518   */\n      0x04\n        /* \"#utility.yul\":8510:8525   */\n      mstore\n        /* \"#utility.yul\":8544:8548   */\n      0x24\n        /* \"#utility.yul\":8541:8542   */\n      0x00\n        /* \"#utility.yul\":8534:8549   */\n      revert\n        /* \"#utility.yul\":8561:8741   */\n    tag_156:\n        /* \"#utility.yul\":8609:8686   */\n      0x4e487b7100000000000000000000000000000000000000000000000000000000\n        /* \"#utility.yul\":8606:8607   */\n      0x00\n        /* \"#utility.yul\":8599:8687   */\n      mstore\n        /* \"#utility.yul\":8706:8710   */\n      0x41\n        /* \"#utility.yul\":8703:8704   */\n      0x04\n        /* \"#utility.yul\":8696:8711   */\n      mstore\n        /* \"#utility.yul\":8730:8734   */\n      0x24\n        /* \"#utility.yul\":8727:8728   */\n      0x00\n        /* \"#utility.yul\":8720:8735   */\n      revert\n        /* \"#utility.yul\":8747:8864   */\n    tag_84:\n        /* \"#utility.yul\":8856:8857   */\n      0x00\n        /* \"#utility.yul\":8853:8854   */\n      dup1\n        /* \"#utility.yul\":8846:8858   */\n      revert\n        /* \"#utility.yul\":8870:8987   */\n    tag_77:\n        /* \"#utility.yul\":8979:8980   */\n      0x00\n        /* \"#utility.yul\":8976:8977   */\n      dup1\n        /* \"#utility.yul\":8969:8981   */\n      revert\n        /* \"#utility.yul\":8993:9110   */\n    tag_101:\n        /* \"#utility.yul\":9102:9103   */\n      0x00\n        /* \"#utility.yul\":9099:9100   */\n      dup1\n        /* \"#utility.yul\":9092:9104   */\n      revert\n        /* \"#utility.yul\":9116:9233   */\n    tag_93:\n        /* \"#utility.yul\":9225:9226   */\n      0x00\n        /* \"#utility.yul\":9222:9223   */\n      dup1\n        /* \"#utility.yul\":9215:9227   */\n      revert\n        /* \"#utility.yul\":9239:9341   */\n    tag_121:\n        /* \"#utility.yul\":9280:9286   */\n      0x00\n        /* \"#utility.yul\":9331:9333   */\n      0x1f\n        /* \"#utility.yul\":9327:9334   */\n      not\n        /* \"#utility.yul\":9322:9324   */\n      0x1f\n        /* \"#utility.yul\":9315:9320   */\n      dup4\n        /* \"#utility.yul\":9311:9325   */\n      add\n        /* \"#utility.yul\":9307:9335   */\n      and\n        /* \"#utility.yul\":9297:9335   */\n      swap1\n      pop\n        /* \"#utility.yul\":9239:9341   */\n      swap2\n      swap1\n      pop\n      jump\t// out\n        /* \"#utility.yul\":9347:9524   */\n    tag_126:\n        /* \"#utility.yul\":9487:9516   */\n      0x4f6e6c7920746865206f776e65722063616e20646f20746869732e0000000000\n        /* \"#utility.yul\":9483:9484   */\n      0x00\n        /* \"#utility.yul\":9475:9481   */\n      dup3\n        /* \"#utility.yul\":9471:9485   */\n      add\n        /* \"#utility.yul\":9464:9517   */\n      mstore\n        /* \"#utility.yul\":9347:9524   */\n      pop\n      jump\t// out\n        /* \"#utility.yul\":9530:9710   */\n    tag_131:\n        /* \"#utility.yul\":9670:9702   */\n      0x4e6f206c6f636174696f6e207570646174657320617661696c61626c652e0000\n        /* \"#utility.yul\":9666:9667   */\n      0x00\n        /* \"#utility.yul\":9658:9664   */\n      dup3\n        /* \"#utility.yul\":9654:9668   */\n      add\n        /* \"#utility.yul\":9647:9703   */\n      mstore\n        /* \"#utility.yul\":9530:9710   */\n      pop\n      jump\t// out\n        /* \"#utility.yul\":9716:9838   */\n    tag_89:\n        /* \"#utility.yul\":9789:9813   */\n      tag_198\n        /* \"#utility.yul\":9807:9812   */\n      dup2\n        /* \"#utility.yul\":9789:9813   */\n      tag_135\n      jump\t// in\n    tag_198:\n        /* \"#utility.yul\":9782:9787   */\n      dup2\n        /* \"#utility.yul\":9779:9814   */\n      eq\n        /* \"#utility.yul\":9769:9832   */\n      tag_199\n      jumpi\n        /* \"#utility.yul\":9828:9829   */\n      0x00\n        /* \"#utility.yul\":9825:9826   */\n      dup1\n        /* \"#utility.yul\":9818:9830   */\n      revert\n        /* \"#utility.yul\":9769:9832   */\n    tag_199:\n        /* \"#utility.yul\":9716:9838   */\n      pop\n      jump\t// out\n\n    auxdata: 0xa2646970667358221220fcb937d4181b83dc7dd64d1d5cf13dcde4024d720413972f7ab8f622551d21b764736f6c63430008070033\n}\n",
				"bytecode": {
					"linkReferences": {},
					"object": "608060405234801561001057600080fd5b50336000806101000a81548173ffffffffffffffffffffffffffffffffffffffff021916908373ffffffffffffffffffffffffffffffffffffffff160217905550610a5a806100606000396000f3fe608060405234801561001057600080fd5b506004361061004c5760003560e01c806323bb1835146100515780634ec0c9e9146100815780638da5cb5b1461009d578063a6b61352146100bb575b600080fd5b61006b60048036038101906100669190610540565b6100ec565b60405161007891906106c1565b60405180910390f35b61009b6004803603810190610096919061056d565b61021f565b005b6100a561032b565b6040516100b291906106a6565b60405180910390f35b6100d560048036038101906100d091906105c9565b61034f565b6040516100e3929190610723565b60405180910390f35b6060600060018060008581526020019081526020016000208054905061011291906107c5565b90506000811015610158576040517f08c379a000000000000000000000000000000000000000000000000000000000815260040161014f90610703565b60405180910390fd5b60016000848152602001908152602001600020818154811061017d5761017c610938565b5b9060005260206000209060020201600101805461019990610877565b80601f01602080910402602001604051908101604052809291908181526020018280546101c590610877565b80156102125780601f106101e757610100808354040283529160200191610212565b820191906000526020600020905b8154815290600101906020018083116101f557829003601f168201915b5050505050915050919050565b60008054906101000a900473ffffffffffffffffffffffffffffffffffffffff1673ffffffffffffffffffffffffffffffffffffffff163373ffffffffffffffffffffffffffffffffffffffff16146102ad576040517f08c379a00000000000000000000000000000000000000000000000000000000081526004016102a4906106e3565b60405180910390fd5b600160008381526020019081526020016000206040518060400160405280428152602001838152509080600181540180825580915050600190039060005260206000209060020201600090919091909150600082015181600001556020820151816001019080519060200190610324929190610418565b5050505050565b60008054906101000a900473ffffffffffffffffffffffffffffffffffffffff1681565b6001602052816000526040600020818154811061036b57600080fd5b90600052602060002090600202016000915091505080600001549080600101805461039590610877565b80601f01602080910402602001604051908101604052809291908181526020018280546103c190610877565b801561040e5780601f106103e35761010080835404028352916020019161040e565b820191906000526020600020905b8154815290600101906020018083116103f157829003601f168201915b5050505050905082565b82805461042490610877565b90600052602060002090601f016020900481019282610446576000855561048d565b82601f1061045f57805160ff191683800117855561048d565b8280016001018555821561048d579182015b8281111561048c578251825591602001919060010190610471565b5b50905061049a919061049e565b5090565b5b808211156104b757600081600090555060010161049f565b5090565b60006104ce6104c984610778565b610753565b9050828152602081018484840111156104ea576104e961099b565b5b6104f5848285610835565b509392505050565b600082601f83011261051257610511610996565b5b81356105228482602086016104bb565b91505092915050565b60008135905061053a81610a0d565b92915050565b600060208284031215610556576105556109a5565b5b60006105648482850161052b565b91505092915050565b60008060408385031215610584576105836109a5565b5b60006105928582860161052b565b925050602083013567ffffffffffffffff8111156105b3576105b26109a0565b5b6105bf858286016104fd565b9150509250929050565b600080604083850312156105e0576105df6109a5565b5b60006105ee8582860161052b565b92505060206105ff8582860161052b565b9150509250929050565b610612816107f9565b82525050565b6000610623826107a9565b61062d81856107b4565b935061063d818560208601610844565b610646816109aa565b840191505092915050565b600061065e601b836107b4565b9150610669826109bb565b602082019050919050565b6000610681601e836107b4565b915061068c826109e4565b602082019050919050565b6106a08161082b565b82525050565b60006020820190506106bb6000830184610609565b92915050565b600060208201905081810360008301526106db8184610618565b905092915050565b600060208201905081810360008301526106fc81610651565b9050919050565b6000602082019050818103600083015261071c81610674565b9050919050565b60006040820190506107386000830185610697565b818103602083015261074a8184610618565b90509392505050565b600061075d61076e565b905061076982826108a9565b919050565b6000604051905090565b600067ffffffffffffffff82111561079357610792610967565b5b61079c826109aa565b9050602081019050919050565b600081519050919050565b600082825260208201905092915050565b60006107d08261082b565b91506107db8361082b565b9250828210156107ee576107ed6108da565b5b828203905092915050565b60006108048261080b565b9050919050565b600073ffffffffffffffffffffffffffffffffffffffff82169050919050565b6000819050919050565b82818337600083830152505050565b60005b83811015610862578082015181840152602081019050610847565b83811115610871576000848401525b50505050565b6000600282049050600182168061088f57607f821691505b602082108114156108a3576108a2610909565b5b50919050565b6108b2826109aa565b810181811067ffffffffffffffff821117156108d1576108d0610967565b5b80604052505050565b7f4e487b7100000000000000000000000000000000000000000000000000000000600052601160045260246000fd5b7f4e487b7100000000000000000000000000000000000000000000000000000000600052602260045260246000fd5b7f4e487b7100000000000000000000000000000000000000000000000000000000600052603260045260246000fd5b7f4e487b7100000000000000000000000000000000000000000000000000000000600052604160045260246000fd5b600080fd5b600080fd5b600080fd5b600080fd5b6000601f19601f8301169050919050565b7f4f6e6c7920746865206f776e65722063616e20646f20746869732e0000000000600082015250565b7f4e6f206c6f636174696f6e207570646174657320617661696c61626c652e0000600082015250565b610a168161082b565b8114610a2157600080fd5b5056fea2646970667358221220fcb937d4181b83dc7dd64d1d5cf13dcde4024d720413972f7ab8f622551d21b764736f6c63430008070033",
					"opcodes": "PUSH1 0x80 PUSH1 0x40 MSTORE CALLVALUE DUP1 ISZERO PUSH2 0x10 JUMPI PUSH1 0x0 DUP1 REVERT JUMPDEST POP CALLER PUSH1 0x0 DUP1 PUSH2 0x100 EXP DUP2 SLOAD DUP2 PUSH20 0xFFFFFFFFFFFFFFFFFFFFFFFFFFFFFFFFFFFFFFFF MUL NOT AND SWAP1 DUP4 PUSH20 0xFFFFFFFFFFFFFFFFFFFFFFFFFFFFFFFFFFFFFFFF AND MUL OR SWAP1 SSTORE POP PUSH2 0xA5A DUP1 PUSH2 0x60 PUSH1 0x0 CODECOPY PUSH1 0x0 RETURN INVALID PUSH1 0x80 PUSH1 0x40 MSTORE CALLVALUE DUP1 ISZERO PUSH2 0x10 JUMPI PUSH1 0x0 DUP1 REVERT JUMPDEST POP PUSH1 0x4 CALLDATASIZE LT PUSH2 0x4C JUMPI PUSH1 0x0 CALLDATALOAD PUSH1 0xE0 SHR DUP1 PUSH4 0x23BB1835 EQ PUSH2 0x51 JUMPI DUP1 PUSH4 0x4EC0C9E9 EQ PUSH2 0x81 JUMPI DUP1 PUSH4 0x8DA5CB5B EQ PUSH2 0x9D JUMPI DUP1 PUSH4 0xA6B61352 EQ PUSH2 0xBB JUMPI JUMPDEST PUSH1 0x0 DUP1 REVERT JUMPDEST PUSH2 0x6B PUSH1 0x4 DUP1 CALLDATASIZE SUB DUP2 ADD SWAP1 PUSH2 0x66 SWAP2 SWAP1 PUSH2 0x540 JUMP JUMPDEST PUSH2 0xEC JUMP JUMPDEST PUSH1 0x40 MLOAD PUSH2 0x78 SWAP2 SWAP1 PUSH2 0x6C1 JUMP JUMPDEST PUSH1 0x40 MLOAD DUP1 SWAP2 SUB SWAP1 RETURN JUMPDEST PUSH2 0x9B PUSH1 0x4 DUP1 CALLDATASIZE SUB DUP2 ADD SWAP1 PUSH2 0x96 SWAP2 SWAP1 PUSH2 0x56D JUMP JUMPDEST PUSH2 0x21F JUMP JUMPDEST STOP JUMPDEST PUSH2 0xA5 PUSH2 0x32B JUMP JUMPDEST PUSH1 0x40 MLOAD PUSH2 0xB2 SWAP2 SWAP1 PUSH2 0x6A6 JUMP JUMPDEST PUSH1 0x40 MLOAD DUP1 SWAP2 SUB SWAP1 RETURN JUMPDEST PUSH2 0xD5 PUSH1 0x4 DUP1 CALLDATASIZE SUB DUP2 ADD SWAP1 PUSH2 0xD0 SWAP2 SWAP1 PUSH2 0x5C9 JUMP JUMPDEST PUSH2 0x34F JUMP JUMPDEST PUSH1 0x40 MLOAD PUSH2 0xE3 SWAP3 SWAP2 SWAP1 PUSH2 0x723 JUMP JUMPDEST PUSH1 0x40 MLOAD DUP1 SWAP2 SUB SWAP1 RETURN JUMPDEST PUSH1 0x60 PUSH1 0x0 PUSH1 0x1 DUP1 PUSH1 0x0 DUP6 DUP2 MSTORE PUSH1 0x20 ADD SWAP1 DUP2 MSTORE PUSH1 0x20 ADD PUSH1 0x0 KECCAK256 DUP1 SLOAD SWAP1 POP PUSH2 0x112 SWAP2 SWAP1 PUSH2 0x7C5 JUMP JUMPDEST SWAP1 POP PUSH1 0x0 DUP2 LT ISZERO PUSH2 0x158 JUMPI PUSH1 0x40 MLOAD PUSH32 0x8C379A000000000000000000000000000000000000000000000000000000000 DUP2 MSTORE PUSH1 0x4 ADD PUSH2 0x14F SWAP1 PUSH2 0x703 JUMP JUMPDEST PUSH1 0x40 MLOAD DUP1 SWAP2 SUB SWAP1 REVERT JUMPDEST PUSH1 0x1 PUSH1 0x0 DUP5 DUP2 MSTORE PUSH1 0x20 ADD SWAP1 DUP2 MSTORE PUSH1 0x20 ADD PUSH1 0x0 KECCAK256 DUP2 DUP2 SLOAD DUP2 LT PUSH2 0x17D JUMPI PUSH2 0x17C PUSH2 0x938 JUMP JUMPDEST JUMPDEST SWAP1 PUSH1 0x0 MSTORE PUSH1 0x20 PUSH1 0x0 KECCAK256 SWAP1 PUSH1 0x2 MUL ADD PUSH1 0x1 ADD DUP1 SLOAD PUSH2 0x199 SWAP1 PUSH2 0x877 JUMP JUMPDEST DUP1 PUSH1 0x1F ADD PUSH1 0x20 DUP1 SWAP2 DIV MUL PUSH1 0x20 ADD PUSH1 0x40 MLOAD SWAP1 DUP2 ADD PUSH1 0x40 MSTORE DUP1 SWAP3 SWAP2 SWAP1 DUP2 DUP2 MSTORE PUSH1 0x20 ADD DUP3 DUP1 SLOAD PUSH2 0x1C5 SWAP1 PUSH2 0x877 JUMP JUMPDEST DUP1 ISZERO PUSH2 0x212 JUMPI DUP1 PUSH1 0x1F LT PUSH2 0x1E7 JUMPI PUSH2 0x100 DUP1 DUP4 SLOAD DIV MUL DUP4 MSTORE SWAP2 PUSH1 0x20 ADD SWAP2 PUSH2 0x212 JUMP JUMPDEST DUP3 ADD SWAP2 SWAP1 PUSH1 0x0 MSTORE PUSH1 0x20 PUSH1 0x0 KECCAK256 SWAP1 JUMPDEST DUP2 SLOAD DUP2 MSTORE SWAP1 PUSH1 0x1 ADD SWAP1 PUSH1 0x20 ADD DUP1 DUP4 GT PUSH2 0x1F5 JUMPI DUP3 SWAP1 SUB PUSH1 0x1F AND DUP3 ADD SWAP2 JUMPDEST POP POP POP POP POP SWAP2 POP POP SWAP2 SWAP1 POP JUMP JUMPDEST PUSH1 0x0 DUP1 SLOAD SWAP1 PUSH2 0x100 EXP SWAP1 DIV PUSH20 0xFFFFFFFFFFFFFFFFFFFFFFFFFFFFFFFFFFFFFFFF AND PUSH20 0xFFFFFFFFFFFFFFFFFFFFFFFFFFFFFFFFFFFFFFFF AND CALLER PUSH20 0xFFFFFFFFFFFFFFFFFFFFFFFFFFFFFFFFFFFFFFFF AND EQ PUSH2 0x2AD JUMPI PUSH1 0x40 MLOAD PUSH32 0x8C379A000000000000000000000000000000000000000000000000000000000 DUP2 MSTORE PUSH1 0x4 ADD PUSH2 0x2A4 SWAP1 PUSH2 0x6E3 JUMP JUMPDEST PUSH1 0x40 MLOAD DUP1 SWAP2 SUB SWAP1 REVERT JUMPDEST PUSH1 0x1 PUSH1 0x0 DUP4 DUP2 MSTORE PUSH1 0x20 ADD SWAP1 DUP2 MSTORE PUSH1 0x20 ADD PUSH1 0x0 KECCAK256 PUSH1 0x40 MLOAD DUP1 PUSH1 0x40 ADD PUSH1 0x40 MSTORE DUP1 TIMESTAMP DUP2 MSTORE PUSH1 0x20 ADD DUP4 DUP2 MSTORE POP SWAP1 DUP1 PUSH1 0x1 DUP2 SLOAD ADD DUP1 DUP3 SSTORE DUP1 SWAP2 POP POP PUSH1 0x1 SWAP1 SUB SWAP1 PUSH1 0x0 MSTORE PUSH1 0x20 PUSH1 0x0 KECCAK256 SWAP1 PUSH1 0x2 MUL ADD PUSH1 0x0 SWAP1 SWAP2 SWAP1 SWAP2 SWAP1 SWAP2 POP PUSH1 0x0 DUP3 ADD MLOAD DUP2 PUSH1 0x0 ADD SSTORE PUSH1 0x20 DUP3 ADD MLOAD DUP2 PUSH1 0x1 ADD SWAP1 DUP1 MLOAD SWAP1 PUSH1 0x20 ADD SWAP1 PUSH2 0x324 SWAP3 SWAP2 SWAP1 PUSH2 0x418 JUMP JUMPDEST POP POP POP POP POP JUMP JUMPDEST PUSH1 0x0 DUP1 SLOAD SWAP1 PUSH2 0x100 EXP SWAP1 DIV PUSH20 0xFFFFFFFFFFFFFFFFFFFFFFFFFFFFFFFFFFFFFFFF AND DUP2 JUMP JUMPDEST PUSH1 0x1 PUSH1 0x20 MSTORE DUP2 PUSH1 0x0 MSTORE PUSH1 0x40 PUSH1 0x0 KECCAK256 DUP2 DUP2 SLOAD DUP2 LT PUSH2 0x36B JUMPI PUSH1 0x0 DUP1 REVERT JUMPDEST SWAP1 PUSH1 0x0 MSTORE PUSH1 0x20 PUSH1 0x0 KECCAK256 SWAP1 PUSH1 0x2 MUL ADD PUSH1 0x0 SWAP2 POP SWAP2 POP POP DUP1 PUSH1 0x0 ADD SLOAD SWAP1 DUP1 PUSH1 0x1 ADD DUP1 SLOAD PUSH2 0x395 SWAP1 PUSH2 0x877 JUMP JUMPDEST DUP1 PUSH1 0x1F ADD PUSH1 0x20 DUP1 SWAP2 DIV MUL PUSH1 0x20 ADD PUSH1 0x40 MLOAD SWAP1 DUP2 ADD PUSH1 0x40 MSTORE DUP1 SWAP3 SWAP2 SWAP1 DUP2 DUP2 MSTORE PUSH1 0x20 ADD DUP3 DUP1 SLOAD PUSH2 0x3C1 SWAP1 PUSH2 0x877 JUMP JUMPDEST DUP1 ISZERO PUSH2 0x40E JUMPI DUP1 PUSH1 0x1F LT PUSH2 0x3E3 JUMPI PUSH2 0x100 DUP1 DUP4 SLOAD DIV MUL DUP4 MSTORE SWAP2 PUSH1 0x20 ADD SWAP2 PUSH2 0x40E JUMP JUMPDEST DUP3 ADD SWAP2 SWAP1 PUSH1 0x0 MSTORE PUSH1 0x20 PUSH1 0x0 KECCAK256 SWAP1 JUMPDEST DUP2 SLOAD DUP2 MSTORE SWAP1 PUSH1 0x1 ADD SWAP1 PUSH1 0x20 ADD DUP1 DUP4 GT PUSH2 0x3F1 JUMPI DUP3 SWAP1 SUB PUSH1 0x1F AND DUP3 ADD SWAP2 JUMPDEST POP POP POP POP POP SWAP1 POP DUP3 JUMP JUMPDEST DUP3 DUP1 SLOAD PUSH2 0x424 SWAP1 PUSH2 0x877 JUMP JUMPDEST SWAP1 PUSH1 0x0 MSTORE PUSH1 0x20 PUSH1 0x0 KECCAK256 SWAP1 PUSH1 0x1F ADD PUSH1 0x20 SWAP1 DIV DUP2 ADD SWAP3 DUP3 PUSH2 0x446 JUMPI PUSH1 0x0 DUP6 SSTORE PUSH2 0x48D JUMP JUMPDEST DUP3 PUSH1 0x1F LT PUSH2 0x45F JUMPI DUP1 MLOAD PUSH1 0xFF NOT AND DUP4 DUP1 ADD OR DUP6 SSTORE PUSH2 0x48D JUMP JUMPDEST DUP3 DUP1 ADD PUSH1 0x1 ADD DUP6 SSTORE DUP3 ISZERO PUSH2 0x48D JUMPI SWAP2 DUP3 ADD JUMPDEST DUP3 DUP2 GT ISZERO PUSH2 0x48C JUMPI DUP3 MLOAD DUP3 SSTORE SWAP2 PUSH1 0x20 ADD SWAP2 SWAP1 PUSH1 0x1 ADD SWAP1 PUSH2 0x471 JUMP JUMPDEST JUMPDEST POP SWAP1 POP PUSH2 0x49A SWAP2 SWAP1 PUSH2 0x49E JUMP JUMPDEST POP SWAP1 JUMP JUMPDEST JUMPDEST DUP1 DUP3 GT ISZERO PUSH2 0x4B7 JUMPI PUSH1 0x0 DUP2 PUSH1 0x0 SWAP1 SSTORE POP PUSH1 0x1 ADD PUSH2 0x49F JUMP JUMPDEST POP SWAP1 JUMP JUMPDEST PUSH1 0x0 PUSH2 0x4CE PUSH2 0x4C9 DUP5 PUSH2 0x778 JUMP JUMPDEST PUSH2 0x753 JUMP JUMPDEST SWAP1 POP DUP3 DUP2 MSTORE PUSH1 0x20 DUP2 ADD DUP5 DUP5 DUP5 ADD GT ISZERO PUSH2 0x4EA JUMPI PUSH2 0x4E9 PUSH2 0x99B JUMP JUMPDEST JUMPDEST PUSH2 0x4F5 DUP5 DUP3 DUP6 PUSH2 0x835 JUMP JUMPDEST POP SWAP4 SWAP3 POP POP POP JUMP JUMPDEST PUSH1 0x0 DUP3 PUSH1 0x1F DUP4 ADD SLT PUSH2 0x512 JUMPI PUSH2 0x511 PUSH2 0x996 JUMP JUMPDEST JUMPDEST DUP2 CALLDATALOAD PUSH2 0x522 DUP5 DUP3 PUSH1 0x20 DUP7 ADD PUSH2 0x4BB JUMP JUMPDEST SWAP2 POP POP SWAP3 SWAP2 POP POP JUMP JUMPDEST PUSH1 0x0 DUP2 CALLDATALOAD SWAP1 POP PUSH2 0x53A DUP2 PUSH2 0xA0D JUMP JUMPDEST SWAP3 SWAP2 POP POP JUMP JUMPDEST PUSH1 0x0 PUSH1 0x20 DUP3 DUP5 SUB SLT ISZERO PUSH2 0x556 JUMPI PUSH2 0x555 PUSH2 0x9A5 JUMP JUMPDEST JUMPDEST PUSH1 0x0 PUSH2 0x564 DUP5 DUP3 DUP6 ADD PUSH2 0x52B JUMP JUMPDEST SWAP2 POP POP SWAP3 SWAP2 POP POP JUMP JUMPDEST PUSH1 0x0 DUP1 PUSH1 0x40 DUP4 DUP6 SUB SLT ISZERO PUSH2 0x584 JUMPI PUSH2 0x583 PUSH2 0x9A5 JUMP JUMPDEST JUMPDEST PUSH1 0x0 PUSH2 0x592 DUP6 DUP3 DUP7 ADD PUSH2 0x52B JUMP JUMPDEST SWAP3 POP POP PUSH1 0x20 DUP4 ADD CALLDATALOAD PUSH8 0xFFFFFFFFFFFFFFFF DUP2 GT ISZERO PUSH2 0x5B3 JUMPI PUSH2 0x5B2 PUSH2 0x9A0 JUMP JUMPDEST JUMPDEST PUSH2 0x5BF DUP6 DUP3 DUP7 ADD PUSH2 0x4FD JUMP JUMPDEST SWAP2 POP POP SWAP3 POP SWAP3 SWAP1 POP JUMP JUMPDEST PUSH1 0x0 DUP1 PUSH1 0x40 DUP4 DUP6 SUB SLT ISZERO PUSH2 0x5E0 JUMPI PUSH2 0x5DF PUSH2 0x9A5 JUMP JUMPDEST JUMPDEST PUSH1 0x0 PUSH2 0x5EE DUP6 DUP3 DUP7 ADD PUSH2 0x52B JUMP JUMPDEST SWAP3 POP POP PUSH1 0x20 PUSH2 0x5FF DUP6 DUP3 DUP7 ADD PUSH2 0x52B JUMP JUMPDEST SWAP2 POP POP SWAP3 POP SWAP3 SWAP1 POP JUMP JUMPDEST PUSH2 0x612 DUP2 PUSH2 0x7F9 JUMP JUMPDEST DUP3 MSTORE POP POP JUMP JUMPDEST PUSH1 0x0 PUSH2 0x623 DUP3 PUSH2 0x7A9 JUMP JUMPDEST PUSH2 0x62D DUP2 DUP6 PUSH2 0x7B4 JUMP JUMPDEST SWAP4 POP PUSH2 0x63D DUP2 DUP6 PUSH1 0x20 DUP7 ADD PUSH2 0x844 JUMP JUMPDEST PUSH2 0x646 DUP2 PUSH2 0x9AA JUMP JUMPDEST DUP5 ADD SWAP2 POP POP SWAP3 SWAP2 POP POP JUMP JUMPDEST PUSH1 0x0 PUSH2 0x65E PUSH1 0x1B DUP4 PUSH2 0x7B4 JUMP JUMPDEST SWAP2 POP PUSH2 0x669 DUP3 PUSH2 0x9BB JUMP JUMPDEST PUSH1 0x20 DUP3 ADD SWAP1 POP SWAP2 SWAP1 POP JUMP JUMPDEST PUSH1 0x0 PUSH2 0x681 PUSH1 0x1E DUP4 PUSH2 0x7B4 JUMP JUMPDEST SWAP2 POP PUSH2 0x68C DUP3 PUSH2 0x9E4 JUMP JUMPDEST PUSH1 0x20 DUP3 ADD SWAP1 POP SWAP2 SWAP1 POP JUMP JUMPDEST PUSH2 0x6A0 DUP2 PUSH2 0x82B JUMP JUMPDEST DUP3 MSTORE POP POP JUMP JUMPDEST PUSH1 0x0 PUSH1 0x20 DUP3 ADD SWAP1 POP PUSH2 0x6BB PUSH1 0x0 DUP4 ADD DUP5 PUSH2 0x609 JUMP JUMPDEST SWAP3 SWAP2 POP POP JUMP JUMPDEST PUSH1 0x0 PUSH1 0x20 DUP3 ADD SWAP1 POP DUP2 DUP2 SUB PUSH1 0x0 DUP4 ADD MSTORE PUSH2 0x6DB DUP2 DUP5 PUSH2 0x618 JUMP JUMPDEST SWAP1 POP SWAP3 SWAP2 POP POP JUMP JUMPDEST PUSH1 0x0 PUSH1 0x20 DUP3 ADD SWAP1 POP DUP2 DUP2 SUB PUSH1 0x0 DUP4 ADD MSTORE PUSH2 0x6FC DUP2 PUSH2 0x651 JUMP JUMPDEST SWAP1 POP SWAP2 SWAP1 POP JUMP JUMPDEST PUSH1 0x0 PUSH1 0x20 DUP3 ADD SWAP1 POP DUP2 DUP2 SUB PUSH1 0x0 DUP4 ADD MSTORE PUSH2 0x71C DUP2 PUSH2 0x674 JUMP JUMPDEST SWAP1 POP SWAP2 SWAP1 POP JUMP JUMPDEST PUSH1 0x0 PUSH1 0x40 DUP3 ADD SWAP1 POP PUSH2 0x738 PUSH1 0x0 DUP4 ADD DUP6 PUSH2 0x697 JUMP JUMPDEST DUP2 DUP2 SUB PUSH1 0x20 DUP4 ADD MSTORE PUSH2 0x74A DUP2 DUP5 PUSH2 0x618 JUMP JUMPDEST SWAP1 POP SWAP4 SWAP3 POP POP POP JUMP JUMPDEST PUSH1 0x0 PUSH2 0x75D PUSH2 0x76E JUMP JUMPDEST SWAP1 POP PUSH2 0x769 DUP3 DUP3 PUSH2 0x8A9 JUMP JUMPDEST SWAP2 SWAP1 POP JUMP JUMPDEST PUSH1 0x0 PUSH1 0x40 MLOAD SWAP1 POP SWAP1 JUMP JUMPDEST PUSH1 0x0 PUSH8 0xFFFFFFFFFFFFFFFF DUP3 GT ISZERO PUSH2 0x793 JUMPI PUSH2 0x792 PUSH2 0x967 JUMP JUMPDEST JUMPDEST PUSH2 0x79C DUP3 PUSH2 0x9AA JUMP JUMPDEST SWAP1 POP PUSH1 0x20 DUP2 ADD SWAP1 POP SWAP2 SWAP1 POP JUMP JUMPDEST PUSH1 0x0 DUP2 MLOAD SWAP1 POP SWAP2 SWAP1 POP JUMP JUMPDEST PUSH1 0x0 DUP3 DUP3 MSTORE PUSH1 0x20 DUP3 ADD SWAP1 POP SWAP3 SWAP2 POP POP JUMP JUMPDEST PUSH1 0x0 PUSH2 0x7D0 DUP3 PUSH2 0x82B JUMP JUMPDEST SWAP2 POP PUSH2 0x7DB DUP4 PUSH2 0x82B JUMP JUMPDEST SWAP3 POP DUP3 DUP3 LT ISZERO PUSH2 0x7EE JUMPI PUSH2 0x7ED PUSH2 0x8DA JUMP JUMPDEST JUMPDEST DUP3 DUP3 SUB SWAP1 POP SWAP3 SWAP2 POP POP JUMP JUMPDEST PUSH1 0x0 PUSH2 0x804 DUP3 PUSH2 0x80B JUMP JUMPDEST SWAP1 POP SWAP2 SWAP1 POP JUMP JUMPDEST PUSH1 0x0 PUSH20 0xFFFFFFFFFFFFFFFFFFFFFFFFFFFFFFFFFFFFFFFF DUP3 AND SWAP1 POP SWAP2 SWAP1 POP JUMP JUMPDEST PUSH1 0x0 DUP2 SWAP1 POP SWAP2 SWAP1 POP JUMP JUMPDEST DUP3 DUP2 DUP4 CALLDATACOPY PUSH1 0x0 DUP4 DUP4 ADD MSTORE POP POP POP JUMP JUMPDEST PUSH1 0x0 JUMPDEST DUP4 DUP2 LT ISZERO PUSH2 0x862 JUMPI DUP1 DUP3 ADD MLOAD DUP2 DUP5 ADD MSTORE PUSH1 0x20 DUP2 ADD SWAP1 POP PUSH2 0x847 JUMP JUMPDEST DUP4 DUP2 GT ISZERO PUSH2 0x871 JUMPI PUSH1 0x0 DUP5 DUP5 ADD MSTORE JUMPDEST POP POP POP POP JUMP JUMPDEST PUSH1 0x0 PUSH1 0x2 DUP3 DIV SWAP1 POP PUSH1 0x1 DUP3 AND DUP1 PUSH2 0x88F JUMPI PUSH1 0x7F DUP3 AND SWAP2 POP JUMPDEST PUSH1 0x20 DUP3 LT DUP2 EQ ISZERO PUSH2 0x8A3 JUMPI PUSH2 0x8A2 PUSH2 0x909 JUMP JUMPDEST JUMPDEST POP SWAP2 SWAP1 POP JUMP JUMPDEST PUSH2 0x8B2 DUP3 PUSH2 0x9AA JUMP JUMPDEST DUP2 ADD DUP2 DUP2 LT PUSH8 0xFFFFFFFFFFFFFFFF DUP3 GT OR ISZERO PUSH2 0x8D1 JUMPI PUSH2 0x8D0 PUSH2 0x967 JUMP JUMPDEST JUMPDEST DUP1 PUSH1 0x40 MSTORE POP POP POP JUMP JUMPDEST PUSH32 0x4E487B7100000000000000000000000000000000000000000000000000000000 PUSH1 0x0 MSTORE PUSH1 0x11 PUSH1 0x4 MSTORE PUSH1 0x24 PUSH1 0x0 REVERT JUMPDEST PUSH32 0x4E487B7100000000000000000000000000000000000000000000000000000000 PUSH1 0x0 MSTORE PUSH1 0x22 PUSH1 0x4 MSTORE PUSH1 0x24 PUSH1 0x0 REVERT JUMPDEST PUSH32 0x4E487B7100000000000000000000000000000000000000000000000000000000 PUSH1 0x0 MSTORE PUSH1 0x32 PUSH1 0x4 MSTORE PUSH1 0x24 PUSH1 0x0 REVERT JUMPDEST PUSH32 0x4E487B7100000000000000000000000000000000000000000000000000000000 PUSH1 0x0 MSTORE PUSH1 0x41 PUSH1 0x4 MSTORE PUSH1 0x24 PUSH1 0x0 REVERT JUMPDEST PUSH1 0x0 DUP1 REVERT JUMPDEST PUSH1 0x0 DUP1 REVERT JUMPDEST PUSH1 0x0 DUP1 REVERT JUMPDEST PUSH1 0x0 DUP1 REVERT JUMPDEST PUSH1 0x0 PUSH1 0x1F NOT PUSH1 0x1F DUP4 ADD AND SWAP1 POP SWAP2 SWAP1 POP JUMP JUMPDEST PUSH32 0x4F6E6C7920746865206F776E65722063616E20646F20746869732E0000000000 PUSH1 0x0 DUP3 ADD MSTORE POP JUMP JUMPDEST PUSH32 0x4E6F206C6F636174696F6E207570646174657320617661696C61626C652E0000 PUSH1 0x0 DUP3 ADD MSTORE POP JUMP JUMPDEST PUSH2 0xA16 DUP2 PUSH2 0x82B JUMP JUMPDEST DUP2 EQ PUSH2 0xA21 JUMPI PUSH1 0x0 DUP1 REVERT JUMPDEST POP JUMP INVALID LOG2 PUSH5 0x6970667358 0x22 SLT KECCAK256 0xFC 0xB9 CALLDATACOPY 0xD4 XOR SHL DUP4 0xDC PUSH30 0xD64D1D5CF13DCDE4024D720413972F7AB8F622551D21B764736F6C634300 ADDMOD SMOD STOP CALLER "
				},
				"gasEstimates": {
					"creation": {
						"codeDepositCost": "530000",
						"executionCost": "24828",
						"totalCost": "554828"
					},
					"external": {
						"getCurrentLocation(uint256)": "infinite",
						"goodsLocations(uint256,uint256)": "infinite",
						"owner()": "2533",
						"updateLocation(uint256,string)": "infinite"
					}
				},
				"methodIdentifiers": {
					"getCurrentLocation(uint256)": "23bb1835",
					"goodsLocations(uint256,uint256)": "a6b61352",
					"owner()": "8da5cb5b",
					"updateLocation(uint256,string)": "4ec0c9e9"
				}
			},
			"storageLayout": {
				"storage": [
					{
						"astId": 3,
						"contract": "TrackingContract.sol:TrackingContract",
						"label": "owner",
						"offset": 0,
						"slot": "0",
						"type": "t_address"
					},
					{
						"astId": 14,
						"contract": "TrackingContract.sol:TrackingContract",
						"label": "goodsLocations",
						"offset": 0,
						"slot": "1",
						"type": "t_mapping(t_uint256,t_array(t_struct(LocationUpdate)8_storage)dyn_storage)"
					}
				],
				"types": {
					"t_address": {
						"encoding": "inplace",
						"label": "address",
						"numberOfBytes": "20"
					},
					"t_array(t_struct(LocationUpdate)8_storage)dyn_storage": {
						"base": "t_struct(LocationUpdate)8_storage",
						"encoding": "dynamic_array",
						"label": "struct TrackingContract.LocationUpdate[]",
						"numberOfBytes": "32"
					},
					"t_mapping(t_uint256,t_array(t_struct(LocationUpdate)8_storage)dyn_storage)": {
						"encoding": "mapping",
						"key": "t_uint256",
						"label": "mapping(uint256 => struct TrackingContract.LocationUpdate[])",
						"numberOfBytes": "32",
						"value": "t_array(t_struct(LocationUpdate)8_storage)dyn_storage"
					},
					"t_string_storage": {
						"encoding": "bytes",
						"label": "string",
						"numberOfBytes": "32"
					},
					"t_struct(LocationUpdate)8_storage": {
						"encoding": "inplace",
						"label": "struct TrackingContract.LocationUpdate",
						"members": [
							{
								"astId": 5,
								"contract": "TrackingContract.sol:TrackingContract",
								"label": "timestamp",
								"offset": 0,
								"slot": "0",
								"type": "t_uint256"
							},
							{
								"astId": 7,
								"contract": "TrackingContract.sol:TrackingContract",
								"label": "location",
								"offset": 0,
								"slot": "1",
								"type": "t_string_storage"
							}
						],
						"numberOfBytes": "64"
					},
					"t_uint256": {
						"encoding": "inplace",
						"label": "uint256",
						"numberOfBytes": "32"
					}
				}
			},
			"userdoc": {
				"kind": "user",
				"methods": {},
				"version": 1
			}
		}
	}
}